{
  "_format": "hh-sol-artifact-1",
  "contractName": "ERC7007GameAsset",
  "sourceName": "contracts/extensions/ERC7007GameAsset.sol",
  "abi": [
    {
      "inputs": [],
      "stateMutability": "nonpayable",
      "type": "constructor"
    },
    {
      "anonymous": false,
      "inputs": [
        {
          "indexed": true,
          "internalType": "address",
          "name": "owner",
          "type": "address"
        },
        {
          "indexed": true,
          "internalType": "address",
          "name": "approved",
          "type": "address"
        },
        {
          "indexed": true,
          "internalType": "uint256",
          "name": "tokenId",
          "type": "uint256"
        }
      ],
      "name": "Approval",
      "type": "event"
    },
    {
      "anonymous": false,
      "inputs": [
        {
          "indexed": true,
          "internalType": "address",
          "name": "owner",
          "type": "address"
        },
        {
          "indexed": true,
          "internalType": "address",
          "name": "operator",
          "type": "address"
        },
        {
          "indexed": false,
          "internalType": "bool",
          "name": "approved",
          "type": "bool"
        }
      ],
      "name": "ApprovalForAll",
      "type": "event"
    },
    {
      "anonymous": false,
      "inputs": [
        {
          "indexed": true,
          "internalType": "uint256",
          "name": "tokenId",
          "type": "uint256"
        },
        {
          "indexed": false,
          "internalType": "string[]",
          "name": "attributes",
          "type": "string[]"
        }
      ],
      "name": "GameAssetAttributesUpdated",
      "type": "event"
    },
    {
      "anonymous": false,
      "inputs": [
        {
          "indexed": true,
          "internalType": "uint256",
          "name": "tokenId",
          "type": "uint256"
        },
        {
          "indexed": false,
          "internalType": "string",
          "name": "assetType",
          "type": "string"
        },
        {
          "indexed": false,
          "internalType": "string",
          "name": "rarity",
          "type": "string"
        },
        {
          "indexed": false,
          "internalType": "uint256",
          "name": "level",
          "type": "uint256"
        },
        {
          "indexed": false,
          "internalType": "bool",
          "name": "tradeable",
          "type": "bool"
        },
        {
          "indexed": false,
          "internalType": "string",
          "name": "gameVersion",
          "type": "string"
        }
      ],
      "name": "GameAssetDetailsSet",
      "type": "event"
    },
    {
      "anonymous": false,
      "inputs": [
        {
          "indexed": true,
          "internalType": "uint256",
          "name": "tokenId",
          "type": "uint256"
        },
        {
          "indexed": false,
          "internalType": "uint256[]",
          "name": "stats",
          "type": "uint256[]"
        }
      ],
      "name": "GameAssetStatsUpdated",
      "type": "event"
    },
    {
      "anonymous": false,
      "inputs": [
        {
          "indexed": true,
          "internalType": "uint256",
          "name": "tokenId",
          "type": "uint256"
        },
        {
          "indexed": false,
          "internalType": "string",
          "name": "newTokenURI",
          "type": "string"
        }
      ],
      "name": "MetadataUpdated",
      "type": "event"
    },
    {
      "anonymous": false,
      "inputs": [
        {
          "indexed": true,
          "internalType": "address",
          "name": "previousOwner",
          "type": "address"
        },
        {
          "indexed": true,
          "internalType": "address",
          "name": "newOwner",
          "type": "address"
        }
      ],
      "name": "OwnershipTransferred",
      "type": "event"
    },
    {
      "anonymous": false,
      "inputs": [
        {
          "indexed": true,
          "internalType": "uint256",
          "name": "tokenId",
          "type": "uint256"
        },
        {
          "indexed": true,
          "internalType": "address",
          "name": "creator",
          "type": "address"
        },
        {
          "indexed": false,
          "internalType": "string",
          "name": "tokenURI",
          "type": "string"
        }
      ],
      "name": "TokenMinted",
      "type": "event"
    },
    {
      "anonymous": false,
      "inputs": [
        {
          "indexed": true,
          "internalType": "address",
          "name": "from",
          "type": "address"
        },
        {
          "indexed": true,
          "internalType": "address",
          "name": "to",
          "type": "address"
        },
        {
          "indexed": true,
          "internalType": "uint256",
          "name": "tokenId",
          "type": "uint256"
        }
      ],
      "name": "Transfer",
      "type": "event"
    },
    {
      "inputs": [
        {
          "internalType": "address",
          "name": "to",
          "type": "address"
        },
        {
          "internalType": "uint256",
          "name": "tokenId",
          "type": "uint256"
        }
      ],
      "name": "approve",
      "outputs": [],
      "stateMutability": "nonpayable",
      "type": "function"
    },
    {
      "inputs": [
        {
          "internalType": "address",
          "name": "owner",
          "type": "address"
        }
      ],
      "name": "balanceOf",
      "outputs": [
        {
          "internalType": "uint256",
          "name": "",
          "type": "uint256"
        }
      ],
      "stateMutability": "view",
      "type": "function"
    },
    {
      "inputs": [
        {
          "internalType": "uint256",
          "name": "tokenId",
          "type": "uint256"
        }
      ],
      "name": "creatorOf",
      "outputs": [
        {
          "internalType": "address",
          "name": "",
          "type": "address"
        }
      ],
      "stateMutability": "view",
      "type": "function"
    },
    {
      "inputs": [
        {
          "internalType": "uint256",
          "name": "tokenId",
          "type": "uint256"
        }
      ],
      "name": "getApproved",
      "outputs": [
        {
          "internalType": "address",
          "name": "",
          "type": "address"
        }
      ],
      "stateMutability": "view",
      "type": "function"
    },
    {
      "inputs": [
        {
          "internalType": "uint256",
          "name": "tokenId",
          "type": "uint256"
        }
      ],
      "name": "getGameAssetDetails",
      "outputs": [
        {
          "internalType": "string",
          "name": "assetType",
          "type": "string"
        },
        {
          "internalType": "string",
          "name": "rarity",
          "type": "string"
        },
        {
          "internalType": "uint256",
          "name": "level",
          "type": "uint256"
        },
        {
          "internalType": "uint256[]",
          "name": "stats",
          "type": "uint256[]"
        },
        {
          "internalType": "string[]",
          "name": "attributes",
          "type": "string[]"
        },
        {
          "internalType": "bool",
          "name": "tradeable",
          "type": "bool"
        },
        {
          "internalType": "string",
          "name": "gameVersion",
          "type": "string"
        }
      ],
      "stateMutability": "view",
      "type": "function"
    },
    {
      "inputs": [
        {
          "internalType": "address",
          "name": "owner",
          "type": "address"
        },
        {
          "internalType": "address",
          "name": "operator",
          "type": "address"
        }
      ],
      "name": "isApprovedForAll",
      "outputs": [
        {
          "internalType": "bool",
          "name": "",
          "type": "bool"
        }
      ],
      "stateMutability": "view",
      "type": "function"
    },
    {
      "inputs": [
        {
          "internalType": "address",
          "name": "to",
          "type": "address"
        },
        {
          "internalType": "string",
          "name": "tokenURI_",
          "type": "string"
        }
      ],
      "name": "mint",
      "outputs": [
        {
          "internalType": "uint256",
          "name": "",
          "type": "uint256"
        }
      ],
      "stateMutability": "nonpayable",
      "type": "function"
    },
    {
      "inputs": [],
      "name": "name",
      "outputs": [
        {
          "internalType": "string",
          "name": "",
          "type": "string"
        }
      ],
      "stateMutability": "view",
      "type": "function"
    },
    {
      "inputs": [],
      "name": "owner",
      "outputs": [
        {
          "internalType": "address",
          "name": "",
          "type": "address"
        }
      ],
      "stateMutability": "view",
      "type": "function"
    },
    {
      "inputs": [
        {
          "internalType": "uint256",
          "name": "tokenId",
          "type": "uint256"
        }
      ],
      "name": "ownerOf",
      "outputs": [
        {
          "internalType": "address",
          "name": "",
          "type": "address"
        }
      ],
      "stateMutability": "view",
      "type": "function"
    },
    {
      "inputs": [],
      "name": "renounceOwnership",
      "outputs": [],
      "stateMutability": "nonpayable",
      "type": "function"
    },
    {
      "inputs": [
        {
          "internalType": "address",
          "name": "from",
          "type": "address"
        },
        {
          "internalType": "address",
          "name": "to",
          "type": "address"
        },
        {
          "internalType": "uint256",
          "name": "tokenId",
          "type": "uint256"
        }
      ],
      "name": "safeTransferFrom",
      "outputs": [],
      "stateMutability": "nonpayable",
      "type": "function"
    },
    {
      "inputs": [
        {
          "internalType": "address",
          "name": "from",
          "type": "address"
        },
        {
          "internalType": "address",
          "name": "to",
          "type": "address"
        },
        {
          "internalType": "uint256",
          "name": "tokenId",
          "type": "uint256"
        },
        {
          "internalType": "bytes",
          "name": "data",
          "type": "bytes"
        }
      ],
      "name": "safeTransferFrom",
      "outputs": [],
      "stateMutability": "nonpayable",
      "type": "function"
    },
    {
      "inputs": [
        {
          "internalType": "address",
          "name": "operator",
          "type": "address"
        },
        {
          "internalType": "bool",
          "name": "approved",
          "type": "bool"
        }
      ],
      "name": "setApprovalForAll",
      "outputs": [],
      "stateMutability": "nonpayable",
      "type": "function"
    },
    {
      "inputs": [
        {
          "internalType": "uint256",
          "name": "tokenId",
          "type": "uint256"
        },
        {
          "internalType": "string",
          "name": "assetType",
          "type": "string"
        },
        {
          "internalType": "string",
          "name": "rarity",
          "type": "string"
        },
        {
          "internalType": "uint256",
          "name": "level",
          "type": "uint256"
        },
        {
          "internalType": "uint256[]",
          "name": "stats",
          "type": "uint256[]"
        },
        {
          "internalType": "string[]",
          "name": "attributes",
          "type": "string[]"
        },
        {
          "internalType": "bool",
          "name": "tradeable",
          "type": "bool"
        },
        {
          "internalType": "string",
          "name": "gameVersion",
          "type": "string"
        }
      ],
      "name": "setGameAssetDetails",
      "outputs": [],
      "stateMutability": "nonpayable",
      "type": "function"
    },
    {
      "inputs": [
        {
          "internalType": "bytes4",
          "name": "interfaceId",
          "type": "bytes4"
        }
      ],
      "name": "supportsInterface",
      "outputs": [
        {
          "internalType": "bool",
          "name": "",
          "type": "bool"
        }
      ],
      "stateMutability": "view",
      "type": "function"
    },
    {
      "inputs": [],
      "name": "symbol",
      "outputs": [
        {
          "internalType": "string",
          "name": "",
          "type": "string"
        }
      ],
      "stateMutability": "view",
      "type": "function"
    },
    {
      "inputs": [
        {
          "internalType": "uint256",
          "name": "tokenId",
          "type": "uint256"
        }
      ],
      "name": "tokenURI",
      "outputs": [
        {
          "internalType": "string",
          "name": "",
          "type": "string"
        }
      ],
      "stateMutability": "view",
      "type": "function"
    },
    {
      "inputs": [
        {
          "internalType": "address",
          "name": "from",
          "type": "address"
        },
        {
          "internalType": "address",
          "name": "to",
          "type": "address"
        },
        {
          "internalType": "uint256",
          "name": "tokenId",
          "type": "uint256"
        }
      ],
      "name": "transferFrom",
      "outputs": [],
      "stateMutability": "nonpayable",
      "type": "function"
    },
    {
      "inputs": [
        {
          "internalType": "address",
          "name": "newOwner",
          "type": "address"
        }
      ],
      "name": "transferOwnership",
      "outputs": [],
      "stateMutability": "nonpayable",
      "type": "function"
    },
    {
      "inputs": [
        {
          "internalType": "uint256",
          "name": "tokenId",
          "type": "uint256"
        },
        {
          "internalType": "string[]",
          "name": "newAttributes",
          "type": "string[]"
        }
      ],
      "name": "updateAssetAttributes",
      "outputs": [],
      "stateMutability": "nonpayable",
      "type": "function"
    },
    {
      "inputs": [
        {
          "internalType": "uint256",
          "name": "tokenId",
          "type": "uint256"
        },
        {
          "internalType": "uint256",
          "name": "newLevel",
          "type": "uint256"
        }
      ],
      "name": "updateAssetLevel",
      "outputs": [],
      "stateMutability": "nonpayable",
      "type": "function"
    },
    {
      "inputs": [
        {
          "internalType": "uint256",
          "name": "tokenId",
          "type": "uint256"
        },
        {
          "internalType": "uint256[]",
          "name": "newStats",
          "type": "uint256[]"
        }
      ],
      "name": "updateAssetStats",
      "outputs": [],
      "stateMutability": "nonpayable",
      "type": "function"
    },
    {
      "inputs": [
        {
          "internalType": "uint256",
          "name": "tokenId",
          "type": "uint256"
        },
        {
          "internalType": "string",
          "name": "newTokenURI",
          "type": "string"
        }
      ],
      "name": "updateMetadata",
      "outputs": [],
      "stateMutability": "nonpayable",
      "type": "function"
    }
  ],
  "bytecode": "0x60806040523480156200001157600080fd5b506040518060400160405280601081526020016f115490cdcc0c0dd1d85b59505cdcd95d60821b8152506040518060400160405280600481526020016347414d4560e01b815250818181600090816200006b91906200019a565b5060016200007a82826200019a565b50505062000097620000916200009f60201b60201c565b620000a3565b505062000266565b3390565b600680546001600160a01b038381166001600160a01b0319831681179093556040519116919082907f8be0079c531659141344cd1fd0a4f28419497f9722a3daafe3b4186f6b6457e090600090a35050565b634e487b7160e01b600052604160045260246000fd5b600181811c908216806200012057607f821691505b6020821081036200014157634e487b7160e01b600052602260045260246000fd5b50919050565b601f8211156200019557600081815260208120601f850160051c81016020861015620001705750805b601f850160051c820191505b8181101562000191578281556001016200017c565b5050505b505050565b81516001600160401b03811115620001b657620001b6620000f5565b620001ce81620001c784546200010b565b8462000147565b602080601f831160018114620002065760008415620001ed5750858301515b600019600386901b1c1916600185901b17855562000191565b600085815260208120601f198616915b82811015620002375788860151825594840194600190910190840162000216565b5085821015620002565787850151600019600388901b60f8161c191681555b5050505050600190811b01905550565b61262f80620002766000396000f3fe608060405234801561001057600080fd5b50600436106101585760003560e01c80636352211e116100c3578063a22cb4651161007c578063a22cb465146102ed578063b88d4fde14610300578063c87b56dd14610313578063d0def52114610326578063e985e9c514610339578063f2fde38b1461037557600080fd5b80636352211e1461028557806365c5feb51461029857806370a08231146102ab578063715018a6146102cc5780638da5cb5b146102d457806395d89b41146102e557600080fd5b806323b872dd1161011557806323b872dd1461021357806342842e0e1461022657806346feb388146102395780634791ca251461024c57806353c8388e1461025f578063589a17431461027257600080fd5b806301ffc9a71461015d57806306fdde0314610185578063081812fc1461019a578063095ea7b3146101c55780630dab578b146101da5780631498cc5314610200575b600080fd5b61017061016b366004611a61565b610388565b60405190151581526020015b60405180910390f35b61018d6103b3565b60405161017c9190611acb565b6101ad6101a8366004611ade565b610445565b6040516001600160a01b03909116815260200161017c565b6101d86101d3366004611b13565b61046c565b005b6101ed6101e8366004611ade565b610586565b60405161017c9796959493929190611bd0565b6101d861020e366004611e27565b6108b7565b6101d8610221366004611f1c565b610a93565b6101d8610234366004611f1c565b610ac4565b6101d8610247366004611f58565b610adf565b6101d861025a366004611f7a565b610b63565b6101d861026d366004612008565b610c39565b6101ad610280366004611ade565b610d31565b6101ad610293366004611ade565b610d7a565b6101d86102a6366004612053565b610dda565b6102be6102b936600461208f565b610e9f565b60405190815260200161017c565b6101d8610f25565b6006546001600160a01b03166101ad565b61018d610f39565b6101d86102fb3660046120aa565b610f48565b6101d861030e3660046120dd565b610f57565b61018d610321366004611ade565b610f8f565b6102be610334366004612158565b611056565b610170610347366004612191565b6001600160a01b03918216600090815260056020908152604080832093909416825291909152205460ff1690565b6101d861038336600461208f565b611153565b60006001600160e01b031982166313f78c3160e01b14806103ad57506103ad826111cc565b92915050565b6060600080546103c2906121bb565b80601f01602080910402602001604051908101604052809291908181526020018280546103ee906121bb565b801561043b5780601f106104105761010080835404028352916020019161043b565b820191906000526020600020905b81548152906001019060200180831161041e57829003601f168201915b5050505050905090565b60006104508261121c565b506000908152600460205260409020546001600160a01b031690565b600061047782610d7a565b9050806001600160a01b0316836001600160a01b0316036104e95760405162461bcd60e51b815260206004820152602160248201527f4552433732313a20617070726f76616c20746f2063757272656e74206f776e656044820152603960f91b60648201526084015b60405180910390fd5b336001600160a01b038216148061050557506105058133610347565b6105775760405162461bcd60e51b815260206004820152603d60248201527f4552433732313a20617070726f76652063616c6c6572206973206e6f7420746f60448201527f6b656e206f776e6572206f7220617070726f76656420666f7220616c6c00000060648201526084016104e0565b610581838361126c565b505050565b6060806000606080600060606000600a60008a815260200190815260200160002090508060000181600101826002015483600301846004018560050160009054906101000a900460ff16866006018680546105e0906121bb565b80601f016020809104026020016040519081016040528092919081815260200182805461060c906121bb565b80156106595780601f1061062e57610100808354040283529160200191610659565b820191906000526020600020905b81548152906001019060200180831161063c57829003601f168201915b5050505050965085805461066c906121bb565b80601f0160208091040260200160405190810160405280929190818152602001828054610698906121bb565b80156106e55780601f106106ba576101008083540402835291602001916106e5565b820191906000526020600020905b8154815290600101906020018083116106c857829003601f168201915b505050505095508380548060200260200160405190810160405280929190818152602001828054801561073757602002820191906000526020600020905b815481526020019060010190808311610723575b5050505050935082805480602002602001604051908101604052809291908181526020016000905b8282101561080b57838290600052602060002001805461077e906121bb565b80601f01602080910402602001604051908101604052809291908181526020018280546107aa906121bb565b80156107f75780601f106107cc576101008083540402835291602001916107f7565b820191906000526020600020905b8154815290600101906020018083116107da57829003601f168201915b50505050508152602001906001019061075f565b50505050925080805461081d906121bb565b80601f0160208091040260200160405190810160405280929190818152602001828054610849906121bb565b80156108965780601f1061086b57610100808354040283529160200191610896565b820191906000526020600020905b81548152906001019060200180831161087957829003601f168201915b50505050509050975097509750975097509750975050919395979092949650565b6108c088610d31565b6001600160a01b0316336001600160a01b0316146109255760405162461bcd60e51b815260206004820152602e60248201526000805160206125da83398151915260448201526d616e207365742064657461696c7360901b60648201526084016104e0565b6000888152600a6020526040902061093d888261223d565b506000888152600a60205260409020600101610959878261223d565b506000888152600a6020908152604090912060028101879055855161098692600390920191870190611942565b506000888152600a6020908152604090912084516109ac9260049092019186019061198d565b506000888152600a6020526040902060058101805460ff19168415151790556006016109d8828261223d565b50877f73bb44c7bcbadb06592e239ae918a04dc07a9572347e12af3e2d8e5539ef39c08888888686604051610a119594939291906122fc565b60405180910390a2877fb918dc13403e11124fc120bafaddffb49b7511699db42f0290e40364564ffd3885604051610a49919061234f565b60405180910390a2877fcd3c355849e5605387efba8128ec72c27167fbf08f69da3a4c047b085630d52184604051610a819190612362565b60405180910390a25050505050505050565b610a9d33826112da565b610ab95760405162461bcd60e51b81526004016104e090612375565b610581838383611359565b61058183838360405180602001604052806000815250610f57565b610ae882610d31565b6001600160a01b0316336001600160a01b031614610b4e5760405162461bcd60e51b815260206004820152602f60248201526000805160206125da83398151915260448201526e185b881d5c19185d19481b195d995b608a1b60648201526084016104e0565b6000918252600a602052604090912060020155565b610b6c82610d31565b6001600160a01b0316336001600160a01b031614610bd75760405162461bcd60e51b815260206004820152603460248201526000805160206125da833981519152604482015273616e20757064617465206174747269627574657360601b60648201526084016104e0565b6000828152600a602090815260409091208251610bfc9260049092019184019061198d565b50817fcd3c355849e5605387efba8128ec72c27167fbf08f69da3a4c047b085630d52182604051610c2d9190612362565b60405180910390a25050565b82610c43816114bd565b610c5f5760405162461bcd60e51b81526004016104e0906123c2565b6000848152600860205260409020546001600160a01b03163314610cd75760405162461bcd60e51b815260206004820152602960248201527f455243373030373a204f6e6c792063726561746f722063616e20757064617465604482015268206d6574616461746160b81b60648201526084016104e0565b6000848152600960205260409020610cf08385836123f9565b50837f459157ba24c7ab9878b165ef465fa6ae2ab42bcd8445f576be378768b0c473098484604051610d239291906124b9565b60405180910390a250505050565b600081610d3d816114bd565b610d595760405162461bcd60e51b81526004016104e0906123c2565b6000838152600860205260409020546001600160a01b031691505b50919050565b6000818152600260205260408120546001600160a01b0316806103ad5760405162461bcd60e51b8152602060048201526018602482015277115490cdcc8c4e881a5b9d985b1a59081d1bdad95b88125160421b60448201526064016104e0565b610de382610d31565b6001600160a01b0316336001600160a01b031614610e495760405162461bcd60e51b815260206004820152602f60248201526000805160206125da83398151915260448201526e616e2075706461746520737461747360881b60648201526084016104e0565b6000828152600a602090815260409091208251610e6e92600390920191840190611942565b50817fb918dc13403e11124fc120bafaddffb49b7511699db42f0290e40364564ffd3882604051610c2d919061234f565b60006001600160a01b038216610f095760405162461bcd60e51b815260206004820152602960248201527f4552433732313a2061646472657373207a65726f206973206e6f7420612076616044820152683634b21037bbb732b960b91b60648201526084016104e0565b506001600160a01b031660009081526003602052604090205490565b610f2d6114da565b610f376000611534565b565b6060600180546103c2906121bb565b610f53338383611586565b5050565b610f6133836112da565b610f7d5760405162461bcd60e51b81526004016104e090612375565b610f8984848484611654565b50505050565b606081610f9b816114bd565b610fb75760405162461bcd60e51b81526004016104e0906123c2565b60008381526009602052604090208054610fd0906121bb565b80601f0160208091040260200160405190810160405280929190818152602001828054610ffc906121bb565b80156110495780601f1061101e57610100808354040283529160200191611049565b820191906000526020600020905b81548152906001019060200180831161102c57829003601f168201915b5050505050915050919050565b60006001600160a01b0384166110ae5760405162461bcd60e51b815260206004820152601d60248201527f455243373030373a206d696e7420746f207a65726f206164647265737300000060448201526064016104e0565b6110bc600780546001019055565b60006110c760075490565b90506110d38582611687565b600081815260086020908152604080832080546001600160a01b03191633179055600990915290206111068486836123f9565b50336001600160a01b0316817fec2cd236ed6d37bf5a71276ac93889db12834493a090efd543a3d2eca8dcdcc886866040516111439291906124b9565b60405180910390a3949350505050565b61115b6114da565b6001600160a01b0381166111c05760405162461bcd60e51b815260206004820152602660248201527f4f776e61626c653a206e6577206f776e657220697320746865207a65726f206160448201526564647265737360d01b60648201526084016104e0565b6111c981611534565b50565b60006001600160e01b031982166380ac58cd60e01b14806111fd57506001600160e01b03198216635b5e139f60e01b145b806103ad57506301ffc9a760e01b6001600160e01b03198316146103ad565b611225816114bd565b6111c95760405162461bcd60e51b8152602060048201526018602482015277115490cdcc8c4e881a5b9d985b1a59081d1bdad95b88125160421b60448201526064016104e0565b600081815260046020526040902080546001600160a01b0319166001600160a01b03841690811790915581906112a182610d7a565b6001600160a01b03167f8c5be1e5ebec7d5bd14f71427d1e84f3dd0314c0f7b2291e5b200ac8c7c3b92560405160405180910390a45050565b6000806112e683610d7a565b9050806001600160a01b0316846001600160a01b0316148061132d57506001600160a01b0380821660009081526005602090815260408083209388168352929052205460ff165b806113515750836001600160a01b031661134684610445565b6001600160a01b0316145b949350505050565b826001600160a01b031661136c82610d7a565b6001600160a01b0316146113925760405162461bcd60e51b81526004016104e0906124e8565b6001600160a01b0382166113f45760405162461bcd60e51b8152602060048201526024808201527f4552433732313a207472616e7366657220746f20746865207a65726f206164646044820152637265737360e01b60648201526084016104e0565b826001600160a01b031661140782610d7a565b6001600160a01b03161461142d5760405162461bcd60e51b81526004016104e0906124e8565b600081815260046020908152604080832080546001600160a01b03199081169091556001600160a01b0387811680865260038552838620805460001901905590871680865283862080546001019055868652600290945282852080549092168417909155905184937fddf252ad1be2c89b69c2b068fc378daa952ba7f163c4a11628f55a4df523b3ef91a4505050565b6000908152600260205260409020546001600160a01b0316151590565b6006546001600160a01b03163314610f375760405162461bcd60e51b815260206004820181905260248201527f4f776e61626c653a2063616c6c6572206973206e6f7420746865206f776e657260448201526064016104e0565b600680546001600160a01b038381166001600160a01b0319831681179093556040519116919082907f8be0079c531659141344cd1fd0a4f28419497f9722a3daafe3b4186f6b6457e090600090a35050565b816001600160a01b0316836001600160a01b0316036115e75760405162461bcd60e51b815260206004820152601960248201527f4552433732313a20617070726f766520746f2063616c6c65720000000000000060448201526064016104e0565b6001600160a01b03838116600081815260056020908152604080832094871680845294825291829020805460ff191686151590811790915591519182527f17307eab39ab6107e8899845ad3d59bd9653f200f220920489ca2b5937696c31910160405180910390a3505050565b61165f848484611359565b61166b848484846116a1565b610f895760405162461bcd60e51b81526004016104e09061252d565b610f538282604051806020016040528060008152506117a2565b60006001600160a01b0384163b1561179757604051630a85bd0160e11b81526001600160a01b0385169063150b7a02906116e590339089908890889060040161257f565b6020604051808303816000875af1925050508015611720575060408051601f3d908101601f1916820190925261171d918101906125bc565b60015b61177d573d80801561174e576040519150601f19603f3d011682016040523d82523d6000602084013e611753565b606091505b5080516000036117755760405162461bcd60e51b81526004016104e09061252d565b805181602001fd5b6001600160e01b031916630a85bd0160e11b149050611351565b506001949350505050565b6117ac83836117d5565b6117b960008484846116a1565b6105815760405162461bcd60e51b81526004016104e09061252d565b6001600160a01b03821661182b5760405162461bcd60e51b815260206004820181905260248201527f4552433732313a206d696e7420746f20746865207a65726f206164647265737360448201526064016104e0565b611834816114bd565b156118815760405162461bcd60e51b815260206004820152601c60248201527f4552433732313a20746f6b656e20616c7265616479206d696e7465640000000060448201526064016104e0565b61188a816114bd565b156118d75760405162461bcd60e51b815260206004820152601c60248201527f4552433732313a20746f6b656e20616c7265616479206d696e7465640000000060448201526064016104e0565b6001600160a01b038216600081815260036020908152604080832080546001019055848352600290915280822080546001600160a01b0319168417905551839291907fddf252ad1be2c89b69c2b068fc378daa952ba7f163c4a11628f55a4df523b3ef908290a45050565b82805482825590600052602060002090810192821561197d579160200282015b8281111561197d578251825591602001919060010190611962565b506119899291506119df565b5090565b8280548282559060005260206000209081019282156119d3579160200282015b828111156119d357825182906119c3908261223d565b50916020019190600101906119ad565b506119899291506119f4565b5b8082111561198957600081556001016119e0565b80821115611989576000611a088282611a11565b506001016119f4565b508054611a1d906121bb565b6000825580601f10611a2d575050565b601f0160209004906000526020600020908101906111c991906119df565b6001600160e01b0319811681146111c957600080fd5b600060208284031215611a7357600080fd5b8135611a7e81611a4b565b9392505050565b6000815180845260005b81811015611aab57602081850181015186830182015201611a8f565b506000602082860101526020601f19601f83011685010191505092915050565b602081526000611a7e6020830184611a85565b600060208284031215611af057600080fd5b5035919050565b80356001600160a01b0381168114611b0e57600080fd5b919050565b60008060408385031215611b2657600080fd5b611b2f83611af7565b946020939093013593505050565b600081518084526020808501945080840160005b83811015611b6d57815187529582019590820190600101611b51565b509495945050505050565b600082825180855260208086019550808260051b84010181860160005b84811015611bc357601f19868403018952611bb1838351611a85565b98840198925090830190600101611b95565b5090979650505050505050565b60e081526000611be360e083018a611a85565b8281036020840152611bf5818a611a85565b90508760408401528281036060840152611c0f8188611b3d565b90508281036080840152611c238187611b78565b905084151560a084015282810360c0840152611c3f8185611a85565b9a9950505050505050505050565b634e487b7160e01b600052604160045260246000fd5b604051601f8201601f191681016001600160401b0381118282101715611c8b57611c8b611c4d565b604052919050565b60006001600160401b03831115611cac57611cac611c4d565b611cbf601f8401601f1916602001611c63565b9050828152838383011115611cd357600080fd5b828260208301376000602084830101529392505050565b600082601f830112611cfb57600080fd5b611a7e83833560208501611c93565b60006001600160401b03821115611d2357611d23611c4d565b5060051b60200190565b600082601f830112611d3e57600080fd5b81356020611d53611d4e83611d0a565b611c63565b82815260059290921b84018101918181019086841115611d7257600080fd5b8286015b84811015611d8d5780358352918301918301611d76565b509695505050505050565b600082601f830112611da957600080fd5b81356020611db9611d4e83611d0a565b82815260059290921b84018101918181019086841115611dd857600080fd5b8286015b84811015611d8d5780356001600160401b03811115611dfb5760008081fd5b611e098986838b0101611cea565b845250918301918301611ddc565b80358015158114611b0e57600080fd5b600080600080600080600080610100898b031215611e4457600080fd5b8835975060208901356001600160401b0380821115611e6257600080fd5b611e6e8c838d01611cea565b985060408b0135915080821115611e8457600080fd5b611e908c838d01611cea565b975060608b0135965060808b0135915080821115611ead57600080fd5b611eb98c838d01611d2d565b955060a08b0135915080821115611ecf57600080fd5b611edb8c838d01611d98565b9450611ee960c08c01611e17565b935060e08b0135915080821115611eff57600080fd5b50611f0c8b828c01611cea565b9150509295985092959890939650565b600080600060608486031215611f3157600080fd5b611f3a84611af7565b9250611f4860208501611af7565b9150604084013590509250925092565b60008060408385031215611f6b57600080fd5b50508035926020909101359150565b60008060408385031215611f8d57600080fd5b8235915060208301356001600160401b03811115611faa57600080fd5b611fb685828601611d98565b9150509250929050565b60008083601f840112611fd257600080fd5b5081356001600160401b03811115611fe957600080fd5b60208301915083602082850101111561200157600080fd5b9250929050565b60008060006040848603121561201d57600080fd5b8335925060208401356001600160401b0381111561203a57600080fd5b61204686828701611fc0565b9497909650939450505050565b6000806040838503121561206657600080fd5b8235915060208301356001600160401b0381111561208357600080fd5b611fb685828601611d2d565b6000602082840312156120a157600080fd5b611a7e82611af7565b600080604083850312156120bd57600080fd5b6120c683611af7565b91506120d460208401611e17565b90509250929050565b600080600080608085870312156120f357600080fd5b6120fc85611af7565b935061210a60208601611af7565b92506040850135915060608501356001600160401b0381111561212c57600080fd5b8501601f8101871361213d57600080fd5b61214c87823560208401611c93565b91505092959194509250565b60008060006040848603121561216d57600080fd5b61217684611af7565b925060208401356001600160401b0381111561203a57600080fd5b600080604083850312156121a457600080fd5b6121ad83611af7565b91506120d460208401611af7565b600181811c908216806121cf57607f821691505b602082108103610d7457634e487b7160e01b600052602260045260246000fd5b601f82111561058157600081815260208120601f850160051c810160208610156122165750805b601f850160051c820191505b8181101561223557828155600101612222565b505050505050565b81516001600160401b0381111561225657612256611c4d565b61226a8161226484546121bb565b846121ef565b602080601f83116001811461229f57600084156122875750858301515b600019600386901b1c1916600185901b178555612235565b600085815260208120601f198616915b828110156122ce578886015182559484019460019091019084016122af565b50858210156122ec5787850151600019600388901b60f8161c191681555b5050505050600190811b01905550565b60a08152600061230f60a0830188611a85565b82810360208401526123218188611a85565b9050856040840152841515606084015282810360808401526123438185611a85565b98975050505050505050565b602081526000611a7e6020830184611b3d565b602081526000611a7e6020830184611b78565b6020808252602d908201527f4552433732313a2063616c6c6572206973206e6f7420746f6b656e206f776e6560408201526c1c881bdc88185c1c1c9bdd9959609a1b606082015260800190565b6020808252601d908201527f455243373030373a20546f6b656e20646f6573206e6f74206578697374000000604082015260600190565b6001600160401b0383111561241057612410611c4d565b6124248361241e83546121bb565b836121ef565b6000601f84116001811461245857600085156124405750838201355b600019600387901b1c1916600186901b1783556124b2565b600083815260209020601f19861690835b828110156124895786850135825560209485019460019092019101612469565b50868210156124a65760001960f88860031b161c19848701351681555b505060018560011b0183555b5050505050565b60208152816020820152818360408301376000818301604090810191909152601f909201601f19160101919050565b60208082526025908201527f4552433732313a207472616e736665722066726f6d20696e636f72726563742060408201526437bbb732b960d91b606082015260800190565b60208082526032908201527f4552433732313a207472616e7366657220746f206e6f6e20455243373231526560408201527131b2b4bb32b91034b6b83632b6b2b73a32b960711b606082015260800190565b6001600160a01b03858116825284166020820152604081018390526080606082018190526000906125b290830184611a85565b9695505050505050565b6000602082840312156125ce57600080fd5b8151611a7e81611a4b56fe4552433730303747616d6541737365743a204f6e6c792063726561746f722063a26469706673582212202c814f0c980748c343084506a3109fffb4f090fe1650ad10b9aedc14c463c60164736f6c63430008130033",
  "linkReferences": {},
  "deployedLinkReferences": {}
}