{
  "_format": "hh-sol-artifact-1",
  "contractName": "ERC7007Text",
  "sourceName": "contracts/extensions/ERC7007Text.sol",
  "abi": [
    {
      "inputs": [],
      "stateMutability": "nonpayable",
      "type": "constructor"
    },
    {
      "anonymous": false,
      "inputs": [
        {
          "indexed": true,
          "internalType": "address",
          "name": "owner",
          "type": "address"
        },
        {
          "indexed": true,
          "internalType": "address",
          "name": "approved",
          "type": "address"
        },
        {
          "indexed": true,
          "internalType": "uint256",
          "name": "tokenId",
          "type": "uint256"
        }
      ],
      "name": "Approval",
      "type": "event"
    },
    {
      "anonymous": false,
      "inputs": [
        {
          "indexed": true,
          "internalType": "address",
          "name": "owner",
          "type": "address"
        },
        {
          "indexed": true,
          "internalType": "address",
          "name": "operator",
          "type": "address"
        },
        {
          "indexed": false,
          "internalType": "bool",
          "name": "approved",
          "type": "bool"
        }
      ],
      "name": "ApprovalForAll",
      "type": "event"
    },
    {
      "anonymous": false,
      "inputs": [
        {
          "indexed": true,
          "internalType": "uint256",
          "name": "tokenId",
          "type": "uint256"
        },
        {
          "indexed": false,
          "internalType": "string",
          "name": "newTokenURI",
          "type": "string"
        }
      ],
      "name": "MetadataUpdated",
      "type": "event"
    },
    {
      "anonymous": false,
      "inputs": [
        {
          "indexed": true,
          "internalType": "address",
          "name": "previousOwner",
          "type": "address"
        },
        {
          "indexed": true,
          "internalType": "address",
          "name": "newOwner",
          "type": "address"
        }
      ],
      "name": "OwnershipTransferred",
      "type": "event"
    },
    {
      "anonymous": false,
      "inputs": [
        {
          "indexed": true,
          "internalType": "uint256",
          "name": "tokenId",
          "type": "uint256"
        },
        {
          "indexed": false,
          "internalType": "string",
          "name": "language",
          "type": "string"
        },
        {
          "indexed": false,
          "internalType": "string",
          "name": "category",
          "type": "string"
        },
        {
          "indexed": false,
          "internalType": "uint256",
          "name": "wordCount",
          "type": "uint256"
        }
      ],
      "name": "TextDetailsSet",
      "type": "event"
    },
    {
      "anonymous": false,
      "inputs": [
        {
          "indexed": true,
          "internalType": "uint256",
          "name": "tokenId",
          "type": "uint256"
        },
        {
          "indexed": true,
          "internalType": "address",
          "name": "creator",
          "type": "address"
        },
        {
          "indexed": false,
          "internalType": "string",
          "name": "tokenURI",
          "type": "string"
        }
      ],
      "name": "TokenMinted",
      "type": "event"
    },
    {
      "anonymous": false,
      "inputs": [
        {
          "indexed": true,
          "internalType": "address",
          "name": "from",
          "type": "address"
        },
        {
          "indexed": true,
          "internalType": "address",
          "name": "to",
          "type": "address"
        },
        {
          "indexed": true,
          "internalType": "uint256",
          "name": "tokenId",
          "type": "uint256"
        }
      ],
      "name": "Transfer",
      "type": "event"
    },
    {
      "inputs": [
        {
          "internalType": "address",
          "name": "to",
          "type": "address"
        },
        {
          "internalType": "uint256",
          "name": "tokenId",
          "type": "uint256"
        }
      ],
      "name": "approve",
      "outputs": [],
      "stateMutability": "nonpayable",
      "type": "function"
    },
    {
      "inputs": [
        {
          "internalType": "address",
          "name": "owner",
          "type": "address"
        }
      ],
      "name": "balanceOf",
      "outputs": [
        {
          "internalType": "uint256",
          "name": "",
          "type": "uint256"
        }
      ],
      "stateMutability": "view",
      "type": "function"
    },
    {
      "inputs": [
        {
          "internalType": "uint256",
          "name": "tokenId",
          "type": "uint256"
        }
      ],
      "name": "creatorOf",
      "outputs": [
        {
          "internalType": "address",
          "name": "",
          "type": "address"
        }
      ],
      "stateMutability": "view",
      "type": "function"
    },
    {
      "inputs": [
        {
          "internalType": "uint256",
          "name": "tokenId",
          "type": "uint256"
        }
      ],
      "name": "getApproved",
      "outputs": [
        {
          "internalType": "address",
          "name": "",
          "type": "address"
        }
      ],
      "stateMutability": "view",
      "type": "function"
    },
    {
      "inputs": [
        {
          "internalType": "uint256",
          "name": "tokenId",
          "type": "uint256"
        }
      ],
      "name": "getTextDetails",
      "outputs": [
        {
          "components": [
            {
              "internalType": "string",
              "name": "language",
              "type": "string"
            },
            {
              "internalType": "string",
              "name": "category",
              "type": "string"
            },
            {
              "internalType": "uint256",
              "name": "wordCount",
              "type": "uint256"
            }
          ],
          "internalType": "struct ERC7007Text.TextMetadata",
          "name": "",
          "type": "tuple"
        }
      ],
      "stateMutability": "view",
      "type": "function"
    },
    {
      "inputs": [
        {
          "internalType": "address",
          "name": "owner",
          "type": "address"
        },
        {
          "internalType": "address",
          "name": "operator",
          "type": "address"
        }
      ],
      "name": "isApprovedForAll",
      "outputs": [
        {
          "internalType": "bool",
          "name": "",
          "type": "bool"
        }
      ],
      "stateMutability": "view",
      "type": "function"
    },
    {
      "inputs": [
        {
          "internalType": "address",
          "name": "to",
          "type": "address"
        },
        {
          "internalType": "string",
          "name": "tokenURI_",
          "type": "string"
        }
      ],
      "name": "mint",
      "outputs": [
        {
          "internalType": "uint256",
          "name": "",
          "type": "uint256"
        }
      ],
      "stateMutability": "nonpayable",
      "type": "function"
    },
    {
      "inputs": [],
      "name": "name",
      "outputs": [
        {
          "internalType": "string",
          "name": "",
          "type": "string"
        }
      ],
      "stateMutability": "view",
      "type": "function"
    },
    {
      "inputs": [],
      "name": "owner",
      "outputs": [
        {
          "internalType": "address",
          "name": "",
          "type": "address"
        }
      ],
      "stateMutability": "view",
      "type": "function"
    },
    {
      "inputs": [
        {
          "internalType": "uint256",
          "name": "tokenId",
          "type": "uint256"
        }
      ],
      "name": "ownerOf",
      "outputs": [
        {
          "internalType": "address",
          "name": "",
          "type": "address"
        }
      ],
      "stateMutability": "view",
      "type": "function"
    },
    {
      "inputs": [],
      "name": "renounceOwnership",
      "outputs": [],
      "stateMutability": "nonpayable",
      "type": "function"
    },
    {
      "inputs": [
        {
          "internalType": "address",
          "name": "from",
          "type": "address"
        },
        {
          "internalType": "address",
          "name": "to",
          "type": "address"
        },
        {
          "internalType": "uint256",
          "name": "tokenId",
          "type": "uint256"
        }
      ],
      "name": "safeTransferFrom",
      "outputs": [],
      "stateMutability": "nonpayable",
      "type": "function"
    },
    {
      "inputs": [
        {
          "internalType": "address",
          "name": "from",
          "type": "address"
        },
        {
          "internalType": "address",
          "name": "to",
          "type": "address"
        },
        {
          "internalType": "uint256",
          "name": "tokenId",
          "type": "uint256"
        },
        {
          "internalType": "bytes",
          "name": "data",
          "type": "bytes"
        }
      ],
      "name": "safeTransferFrom",
      "outputs": [],
      "stateMutability": "nonpayable",
      "type": "function"
    },
    {
      "inputs": [
        {
          "internalType": "address",
          "name": "operator",
          "type": "address"
        },
        {
          "internalType": "bool",
          "name": "approved",
          "type": "bool"
        }
      ],
      "name": "setApprovalForAll",
      "outputs": [],
      "stateMutability": "nonpayable",
      "type": "function"
    },
    {
      "inputs": [
        {
          "internalType": "uint256",
          "name": "tokenId",
          "type": "uint256"
        },
        {
          "internalType": "string",
          "name": "language",
          "type": "string"
        },
        {
          "internalType": "string",
          "name": "category",
          "type": "string"
        },
        {
          "internalType": "uint256",
          "name": "wordCount",
          "type": "uint256"
        }
      ],
      "name": "setTextDetails",
      "outputs": [],
      "stateMutability": "nonpayable",
      "type": "function"
    },
    {
      "inputs": [
        {
          "internalType": "bytes4",
          "name": "interfaceId",
          "type": "bytes4"
        }
      ],
      "name": "supportsInterface",
      "outputs": [
        {
          "internalType": "bool",
          "name": "",
          "type": "bool"
        }
      ],
      "stateMutability": "view",
      "type": "function"
    },
    {
      "inputs": [],
      "name": "symbol",
      "outputs": [
        {
          "internalType": "string",
          "name": "",
          "type": "string"
        }
      ],
      "stateMutability": "view",
      "type": "function"
    },
    {
      "inputs": [
        {
          "internalType": "uint256",
          "name": "tokenId",
          "type": "uint256"
        }
      ],
      "name": "tokenURI",
      "outputs": [
        {
          "internalType": "string",
          "name": "",
          "type": "string"
        }
      ],
      "stateMutability": "view",
      "type": "function"
    },
    {
      "inputs": [
        {
          "internalType": "address",
          "name": "from",
          "type": "address"
        },
        {
          "internalType": "address",
          "name": "to",
          "type": "address"
        },
        {
          "internalType": "uint256",
          "name": "tokenId",
          "type": "uint256"
        }
      ],
      "name": "transferFrom",
      "outputs": [],
      "stateMutability": "nonpayable",
      "type": "function"
    },
    {
      "inputs": [
        {
          "internalType": "address",
          "name": "newOwner",
          "type": "address"
        }
      ],
      "name": "transferOwnership",
      "outputs": [],
      "stateMutability": "nonpayable",
      "type": "function"
    },
    {
      "inputs": [
        {
          "internalType": "uint256",
          "name": "tokenId",
          "type": "uint256"
        },
        {
          "internalType": "string",
          "name": "newTokenURI",
          "type": "string"
        }
      ],
      "name": "updateMetadata",
      "outputs": [],
      "stateMutability": "nonpayable",
      "type": "function"
    }
  ],
  "bytecode": "0x60806040523480156200001157600080fd5b506040518060400160405280600b81526020016a115490cdcc0c0dd5195e1d60aa1b815250604051806040016040528060048152602001631511561560e21b8152508181816000908162000066919062000195565b50600162000075828262000195565b505050620000926200008c6200009a60201b60201c565b6200009e565b505062000261565b3390565b600680546001600160a01b038381166001600160a01b0319831681179093556040519116919082907f8be0079c531659141344cd1fd0a4f28419497f9722a3daafe3b4186f6b6457e090600090a35050565b634e487b7160e01b600052604160045260246000fd5b600181811c908216806200011b57607f821691505b6020821081036200013c57634e487b7160e01b600052602260045260246000fd5b50919050565b601f8211156200019057600081815260208120601f850160051c810160208610156200016b5750805b601f850160051c820191505b818110156200018c5782815560010162000177565b5050505b505050565b81516001600160401b03811115620001b157620001b1620000f0565b620001c981620001c2845462000106565b8462000142565b602080601f831160018114620002015760008415620001e85750858301515b600019600386901b1c1916600185901b1785556200018c565b600085815260208120601f198616915b82811015620002325788860151825594840194600190910190840162000211565b5085821015620002515787850151600019600388901b60f8161c191681555b5050505050600190811b01905550565b611d1d80620002716000396000f3fe608060405234801561001057600080fd5b50600436106101375760003560e01c80636352211e116100b8578063a22cb4651161007c578063a22cb4651461028d578063b88d4fde146102a0578063c87b56dd146102b3578063d0def521146102c6578063e985e9c5146102d9578063f2fde38b1461031557600080fd5b80636352211e1461023857806370a082311461024b578063715018a61461026c5780638da5cb5b1461027457806395d89b411461028557600080fd5b806342842e0e116100ff57806342842e0e146101cc5780634d4bca9a146101df5780634fc426ac146101f257806353c8388e14610212578063589a17431461022557600080fd5b806301ffc9a71461013c57806306fdde0314610164578063081812fc14610179578063095ea7b3146101a457806323b872dd146101b9575b600080fd5b61014f61014a3660046114c3565b610328565b60405190151581526020015b60405180910390f35b61016c610353565b60405161015b919061152d565b61018c610187366004611540565b6103e5565b6040516001600160a01b03909116815260200161015b565b6101b76101b2366004611575565b61040c565b005b6101b76101c736600461159f565b610526565b6101b76101da36600461159f565b610557565b6101b76101ed366004611624565b610572565b610205610200366004611540565b6106f8565b60405161015b91906116a6565b6101b76102203660046116f6565b610869565b61018c610233366004611540565b610961565b61018c610246366004611540565b6109aa565b61025e610259366004611742565b610a0a565b60405190815260200161015b565b6101b7610a90565b6006546001600160a01b031661018c565b61016c610aa4565b6101b761029b36600461175d565b610ab3565b6101b76102ae3660046117af565b610ac2565b61016c6102c1366004611540565b610afa565b61025e6102d436600461188b565b610bc1565b61014f6102e73660046118c5565b6001600160a01b03918216600090815260056020908152604080832093909416825291909152205460ff1690565b6101b7610323366004611742565b610cbe565b60006001600160e01b031982166313f78c3160e01b148061034d575061034d82610d37565b92915050565b606060008054610362906118f8565b80601f016020809104026020016040519081016040528092919081815260200182805461038e906118f8565b80156103db5780601f106103b0576101008083540402835291602001916103db565b820191906000526020600020905b8154815290600101906020018083116103be57829003601f168201915b5050505050905090565b60006103f082610d87565b506000908152600460205260409020546001600160a01b031690565b6000610417826109aa565b9050806001600160a01b0316836001600160a01b0316036104895760405162461bcd60e51b815260206004820152602160248201527f4552433732313a20617070726f76616c20746f2063757272656e74206f776e656044820152603960f91b60648201526084015b60405180910390fd5b336001600160a01b03821614806104a557506104a581336102e7565b6105175760405162461bcd60e51b815260206004820152603d60248201527f4552433732313a20617070726f76652063616c6c6572206973206e6f7420746f60448201527f6b656e206f776e6572206f7220617070726f76656420666f7220616c6c0000006064820152608401610480565b6105218383610dd7565b505050565b6105303382610e45565b61054c5760405162461bcd60e51b81526004016104809061192c565b610521838383610ec4565b61052183838360405180602001604052806000815250610ac2565b61057b86610961565b6001600160a01b0316336001600160a01b0316146105ed5760405162461bcd60e51b815260206004820152602960248201527f45524337303037546578743a204f6e6c792063726561746f722063616e207365604482015268742064657461696c7360b81b6064820152608401610480565b604051806060016040528086868080601f016020809104026020016040519081016040528093929190818152602001838380828437600092019190915250505090825250604080516020601f87018190048102820181019092528581529181019190869086908190840183828082843760009201829052509385525050506020918201849052888152600a909152604090208151819061068d90826119c7565b50602082015160018201906106a290826119c7565b5060408201518160020155905050857f1b9b53338a387f43c2de2778958b4ebaf619126d09108c0fc1bce3b95c95679d86868686866040516106e8959493929190611ab0565b60405180910390a2505050505050565b61071c60405180606001604052806060815260200160608152602001600081525090565b6000828152600a602052604090819020815160608101909252805482908290610744906118f8565b80601f0160208091040260200160405190810160405280929190818152602001828054610770906118f8565b80156107bd5780601f10610792576101008083540402835291602001916107bd565b820191906000526020600020905b8154815290600101906020018083116107a057829003601f168201915b505050505081526020016001820180546107d6906118f8565b80601f0160208091040260200160405190810160405280929190818152602001828054610802906118f8565b801561084f5780601f106108245761010080835404028352916020019161084f565b820191906000526020600020905b81548152906001019060200180831161083257829003601f168201915b505050505081526020016002820154815250509050919050565b8261087381611028565b61088f5760405162461bcd60e51b815260040161048090611aea565b6000848152600860205260409020546001600160a01b031633146109075760405162461bcd60e51b815260206004820152602960248201527f455243373030373a204f6e6c792063726561746f722063616e20757064617465604482015268206d6574616461746160b81b6064820152608401610480565b6000848152600960205260409020610920838583611b21565b50837f459157ba24c7ab9878b165ef465fa6ae2ab42bcd8445f576be378768b0c473098484604051610953929190611be2565b60405180910390a250505050565b60008161096d81611028565b6109895760405162461bcd60e51b815260040161048090611aea565b6000838152600860205260409020546001600160a01b031691505b50919050565b6000818152600260205260408120546001600160a01b03168061034d5760405162461bcd60e51b8152602060048201526018602482015277115490cdcc8c4e881a5b9d985b1a59081d1bdad95b88125160421b6044820152606401610480565b60006001600160a01b038216610a745760405162461bcd60e51b815260206004820152602960248201527f4552433732313a2061646472657373207a65726f206973206e6f7420612076616044820152683634b21037bbb732b960b91b6064820152608401610480565b506001600160a01b031660009081526003602052604090205490565b610a98611045565b610aa2600061109f565b565b606060018054610362906118f8565b610abe3383836110f1565b5050565b610acc3383610e45565b610ae85760405162461bcd60e51b81526004016104809061192c565b610af4848484846111bf565b50505050565b606081610b0681611028565b610b225760405162461bcd60e51b815260040161048090611aea565b60008381526009602052604090208054610b3b906118f8565b80601f0160208091040260200160405190810160405280929190818152602001828054610b67906118f8565b8015610bb45780601f10610b8957610100808354040283529160200191610bb4565b820191906000526020600020905b815481529060010190602001808311610b9757829003601f168201915b5050505050915050919050565b60006001600160a01b038416610c195760405162461bcd60e51b815260206004820152601d60248201527f455243373030373a206d696e7420746f207a65726f20616464726573730000006044820152606401610480565b610c27600780546001019055565b6000610c3260075490565b9050610c3e85826111f2565b600081815260086020908152604080832080546001600160a01b0319163317905560099091529020610c71848683611b21565b50336001600160a01b0316817fec2cd236ed6d37bf5a71276ac93889db12834493a090efd543a3d2eca8dcdcc88686604051610cae929190611be2565b60405180910390a3949350505050565b610cc6611045565b6001600160a01b038116610d2b5760405162461bcd60e51b815260206004820152602660248201527f4f776e61626c653a206e6577206f776e657220697320746865207a65726f206160448201526564647265737360d01b6064820152608401610480565b610d348161109f565b50565b60006001600160e01b031982166380ac58cd60e01b1480610d6857506001600160e01b03198216635b5e139f60e01b145b8061034d57506301ffc9a760e01b6001600160e01b031983161461034d565b610d9081611028565b610d345760405162461bcd60e51b8152602060048201526018602482015277115490cdcc8c4e881a5b9d985b1a59081d1bdad95b88125160421b6044820152606401610480565b600081815260046020526040902080546001600160a01b0319166001600160a01b0384169081179091558190610e0c826109aa565b6001600160a01b03167f8c5be1e5ebec7d5bd14f71427d1e84f3dd0314c0f7b2291e5b200ac8c7c3b92560405160405180910390a45050565b600080610e51836109aa565b9050806001600160a01b0316846001600160a01b03161480610e9857506001600160a01b0380821660009081526005602090815260408083209388168352929052205460ff165b80610ebc5750836001600160a01b0316610eb1846103e5565b6001600160a01b0316145b949350505050565b826001600160a01b0316610ed7826109aa565b6001600160a01b031614610efd5760405162461bcd60e51b815260040161048090611bf6565b6001600160a01b038216610f5f5760405162461bcd60e51b8152602060048201526024808201527f4552433732313a207472616e7366657220746f20746865207a65726f206164646044820152637265737360e01b6064820152608401610480565b826001600160a01b0316610f72826109aa565b6001600160a01b031614610f985760405162461bcd60e51b815260040161048090611bf6565b600081815260046020908152604080832080546001600160a01b03199081169091556001600160a01b0387811680865260038552838620805460001901905590871680865283862080546001019055868652600290945282852080549092168417909155905184937fddf252ad1be2c89b69c2b068fc378daa952ba7f163c4a11628f55a4df523b3ef91a4505050565b6000908152600260205260409020546001600160a01b0316151590565b6006546001600160a01b03163314610aa25760405162461bcd60e51b815260206004820181905260248201527f4f776e61626c653a2063616c6c6572206973206e6f7420746865206f776e65726044820152606401610480565b600680546001600160a01b038381166001600160a01b0319831681179093556040519116919082907f8be0079c531659141344cd1fd0a4f28419497f9722a3daafe3b4186f6b6457e090600090a35050565b816001600160a01b0316836001600160a01b0316036111525760405162461bcd60e51b815260206004820152601960248201527f4552433732313a20617070726f766520746f2063616c6c6572000000000000006044820152606401610480565b6001600160a01b03838116600081815260056020908152604080832094871680845294825291829020805460ff191686151590811790915591519182527f17307eab39ab6107e8899845ad3d59bd9653f200f220920489ca2b5937696c31910160405180910390a3505050565b6111ca848484610ec4565b6111d68484848461120c565b610af45760405162461bcd60e51b815260040161048090611c3b565b610abe82826040518060200160405280600081525061130d565b60006001600160a01b0384163b1561130257604051630a85bd0160e11b81526001600160a01b0385169063150b7a0290611250903390899088908890600401611c8d565b6020604051808303816000875af192505050801561128b575060408051601f3d908101601f1916820190925261128891810190611cca565b60015b6112e8573d8080156112b9576040519150601f19603f3d011682016040523d82523d6000602084013e6112be565b606091505b5080516000036112e05760405162461bcd60e51b815260040161048090611c3b565b805181602001fd5b6001600160e01b031916630a85bd0160e11b149050610ebc565b506001949350505050565b6113178383611340565b611324600084848461120c565b6105215760405162461bcd60e51b815260040161048090611c3b565b6001600160a01b0382166113965760405162461bcd60e51b815260206004820181905260248201527f4552433732313a206d696e7420746f20746865207a65726f20616464726573736044820152606401610480565b61139f81611028565b156113ec5760405162461bcd60e51b815260206004820152601c60248201527f4552433732313a20746f6b656e20616c7265616479206d696e746564000000006044820152606401610480565b6113f581611028565b156114425760405162461bcd60e51b815260206004820152601c60248201527f4552433732313a20746f6b656e20616c7265616479206d696e746564000000006044820152606401610480565b6001600160a01b038216600081815260036020908152604080832080546001019055848352600290915280822080546001600160a01b0319168417905551839291907fddf252ad1be2c89b69c2b068fc378daa952ba7f163c4a11628f55a4df523b3ef908290a45050565b6001600160e01b031981168114610d3457600080fd5b6000602082840312156114d557600080fd5b81356114e0816114ad565b9392505050565b6000815180845260005b8181101561150d576020818501810151868301820152016114f1565b506000602082860101526020601f19601f83011685010191505092915050565b6020815260006114e060208301846114e7565b60006020828403121561155257600080fd5b5035919050565b80356001600160a01b038116811461157057600080fd5b919050565b6000806040838503121561158857600080fd5b61159183611559565b946020939093013593505050565b6000806000606084860312156115b457600080fd5b6115bd84611559565b92506115cb60208501611559565b9150604084013590509250925092565b60008083601f8401126115ed57600080fd5b50813567ffffffffffffffff81111561160557600080fd5b60208301915083602082850101111561161d57600080fd5b9250929050565b6000806000806000806080878903121561163d57600080fd5b86359550602087013567ffffffffffffffff8082111561165c57600080fd5b6116688a838b016115db565b9097509550604089013591508082111561168157600080fd5b5061168e89828a016115db565b979a9699509497949695606090950135949350505050565b6020815260008251606060208401526116c260808401826114e7565b90506020840151601f198483030160408501526116df82826114e7565b915050604084015160608401528091505092915050565b60008060006040848603121561170b57600080fd5b83359250602084013567ffffffffffffffff81111561172957600080fd5b611735868287016115db565b9497909650939450505050565b60006020828403121561175457600080fd5b6114e082611559565b6000806040838503121561177057600080fd5b61177983611559565b91506020830135801515811461178e57600080fd5b809150509250929050565b634e487b7160e01b600052604160045260246000fd5b600080600080608085870312156117c557600080fd5b6117ce85611559565b93506117dc60208601611559565b925060408501359150606085013567ffffffffffffffff8082111561180057600080fd5b818701915087601f83011261181457600080fd5b81358181111561182657611826611799565b604051601f8201601f19908116603f0116810190838211818310171561184e5761184e611799565b816040528281528a602084870101111561186757600080fd5b82602086016020830137600060208483010152809550505050505092959194509250565b6000806000604084860312156118a057600080fd5b6118a984611559565b9250602084013567ffffffffffffffff81111561172957600080fd5b600080604083850312156118d857600080fd5b6118e183611559565b91506118ef60208401611559565b90509250929050565b600181811c9082168061190c57607f821691505b6020821081036109a457634e487b7160e01b600052602260045260246000fd5b6020808252602d908201527f4552433732313a2063616c6c6572206973206e6f7420746f6b656e206f776e6560408201526c1c881bdc88185c1c1c9bdd9959609a1b606082015260800190565b601f82111561052157600081815260208120601f850160051c810160208610156119a05750805b601f850160051c820191505b818110156119bf578281556001016119ac565b505050505050565b815167ffffffffffffffff8111156119e1576119e1611799565b6119f5816119ef84546118f8565b84611979565b602080601f831160018114611a2a5760008415611a125750858301515b600019600386901b1c1916600185901b1785556119bf565b600085815260208120601f198616915b82811015611a5957888601518255948401946001909101908401611a3a565b5085821015611a775787850151600019600388901b60f8161c191681555b5050505050600190811b01905550565b81835281816020850137506000828201602090810191909152601f909101601f19169091010190565b606081526000611ac4606083018789611a87565b8281036020840152611ad7818688611a87565b9150508260408301529695505050505050565b6020808252601d908201527f455243373030373a20546f6b656e20646f6573206e6f74206578697374000000604082015260600190565b67ffffffffffffffff831115611b3957611b39611799565b611b4d83611b4783546118f8565b83611979565b6000601f841160018114611b815760008515611b695750838201355b600019600387901b1c1916600186901b178355611bdb565b600083815260209020601f19861690835b82811015611bb25786850135825560209485019460019092019101611b92565b5086821015611bcf5760001960f88860031b161c19848701351681555b505060018560011b0183555b5050505050565b602081526000610ebc602083018486611a87565b60208082526025908201527f4552433732313a207472616e736665722066726f6d20696e636f72726563742060408201526437bbb732b960d91b606082015260800190565b60208082526032908201527f4552433732313a207472616e7366657220746f206e6f6e20455243373231526560408201527131b2b4bb32b91034b6b83632b6b2b73a32b960711b606082015260800190565b6001600160a01b0385811682528416602082015260408101839052608060608201819052600090611cc0908301846114e7565b9695505050505050565b600060208284031215611cdc57600080fd5b81516114e0816114ad56fea2646970667358221220c041b87fec53c3a983429434caa895ff8314708f1731fda91bdab916735730f964736f6c63430008130033",
  "linkReferences": {},
  "deployedLinkReferences": {}
}