{
  "_format": "hh-sol-artifact-1",
  "contractName": "ERC721Integration",
  "sourceName": "contracts/examples/ERC721Integration.sol",
  "abi": [
    {
      "inputs": [],
      "stateMutability": "nonpayable",
      "type": "constructor"
    },
    {
      "anonymous": false,
      "inputs": [
        {
          "indexed": true,
          "internalType": "address",
          "name": "owner",
          "type": "address"
        },
        {
          "indexed": true,
          "internalType": "address",
          "name": "approved",
          "type": "address"
        },
        {
          "indexed": true,
          "internalType": "uint256",
          "name": "tokenId",
          "type": "uint256"
        }
      ],
      "name": "Approval",
      "type": "event"
    },
    {
      "anonymous": false,
      "inputs": [
        {
          "indexed": true,
          "internalType": "address",
          "name": "owner",
          "type": "address"
        },
        {
          "indexed": true,
          "internalType": "address",
          "name": "operator",
          "type": "address"
        },
        {
          "indexed": false,
          "internalType": "bool",
          "name": "approved",
          "type": "bool"
        }
      ],
      "name": "ApprovalForAll",
      "type": "event"
    },
    {
      "anonymous": false,
      "inputs": [
        {
          "indexed": true,
          "internalType": "uint256",
          "name": "tokenId",
          "type": "uint256"
        },
        {
          "indexed": false,
          "internalType": "string",
          "name": "newTokenURI",
          "type": "string"
        }
      ],
      "name": "MetadataUpdated",
      "type": "event"
    },
    {
      "anonymous": false,
      "inputs": [
        {
          "indexed": true,
          "internalType": "address",
          "name": "previousOwner",
          "type": "address"
        },
        {
          "indexed": true,
          "internalType": "address",
          "name": "newOwner",
          "type": "address"
        }
      ],
      "name": "OwnershipTransferred",
      "type": "event"
    },
    {
      "anonymous": false,
      "inputs": [
        {
          "indexed": true,
          "internalType": "uint256",
          "name": "tokenId",
          "type": "uint256"
        },
        {
          "indexed": true,
          "internalType": "address",
          "name": "creator",
          "type": "address"
        },
        {
          "indexed": false,
          "internalType": "string",
          "name": "tokenURI",
          "type": "string"
        }
      ],
      "name": "TokenMinted",
      "type": "event"
    },
    {
      "anonymous": false,
      "inputs": [
        {
          "indexed": true,
          "internalType": "address",
          "name": "from",
          "type": "address"
        },
        {
          "indexed": true,
          "internalType": "address",
          "name": "to",
          "type": "address"
        },
        {
          "indexed": true,
          "internalType": "uint256",
          "name": "tokenId",
          "type": "uint256"
        }
      ],
      "name": "Transfer",
      "type": "event"
    },
    {
      "inputs": [
        {
          "internalType": "address",
          "name": "to",
          "type": "address"
        },
        {
          "internalType": "uint256",
          "name": "tokenId",
          "type": "uint256"
        }
      ],
      "name": "approve",
      "outputs": [],
      "stateMutability": "nonpayable",
      "type": "function"
    },
    {
      "inputs": [
        {
          "internalType": "address",
          "name": "owner",
          "type": "address"
        }
      ],
      "name": "balanceOf",
      "outputs": [
        {
          "internalType": "uint256",
          "name": "",
          "type": "uint256"
        }
      ],
      "stateMutability": "view",
      "type": "function"
    },
    {
      "inputs": [
        {
          "internalType": "uint256",
          "name": "tokenId",
          "type": "uint256"
        }
      ],
      "name": "creatorOf",
      "outputs": [
        {
          "internalType": "address",
          "name": "",
          "type": "address"
        }
      ],
      "stateMutability": "view",
      "type": "function"
    },
    {
      "inputs": [
        {
          "internalType": "uint256",
          "name": "tokenId",
          "type": "uint256"
        }
      ],
      "name": "getApproved",
      "outputs": [
        {
          "internalType": "address",
          "name": "",
          "type": "address"
        }
      ],
      "stateMutability": "view",
      "type": "function"
    },
    {
      "inputs": [
        {
          "internalType": "address",
          "name": "owner",
          "type": "address"
        },
        {
          "internalType": "address",
          "name": "operator",
          "type": "address"
        }
      ],
      "name": "isApprovedForAll",
      "outputs": [
        {
          "internalType": "bool",
          "name": "",
          "type": "bool"
        }
      ],
      "stateMutability": "view",
      "type": "function"
    },
    {
      "inputs": [
        {
          "internalType": "address",
          "name": "to",
          "type": "address"
        },
        {
          "internalType": "string",
          "name": "tokenURI_",
          "type": "string"
        }
      ],
      "name": "mint",
      "outputs": [
        {
          "internalType": "uint256",
          "name": "",
          "type": "uint256"
        }
      ],
      "stateMutability": "nonpayable",
      "type": "function"
    },
    {
      "inputs": [],
      "name": "name",
      "outputs": [
        {
          "internalType": "string",
          "name": "",
          "type": "string"
        }
      ],
      "stateMutability": "view",
      "type": "function"
    },
    {
      "inputs": [],
      "name": "owner",
      "outputs": [
        {
          "internalType": "address",
          "name": "",
          "type": "address"
        }
      ],
      "stateMutability": "view",
      "type": "function"
    },
    {
      "inputs": [
        {
          "internalType": "uint256",
          "name": "tokenId",
          "type": "uint256"
        }
      ],
      "name": "ownerOf",
      "outputs": [
        {
          "internalType": "address",
          "name": "",
          "type": "address"
        }
      ],
      "stateMutability": "view",
      "type": "function"
    },
    {
      "inputs": [],
      "name": "renounceOwnership",
      "outputs": [],
      "stateMutability": "nonpayable",
      "type": "function"
    },
    {
      "inputs": [
        {
          "internalType": "address",
          "name": "from",
          "type": "address"
        },
        {
          "internalType": "address",
          "name": "to",
          "type": "address"
        },
        {
          "internalType": "uint256",
          "name": "tokenId",
          "type": "uint256"
        }
      ],
      "name": "safeTransferFrom",
      "outputs": [],
      "stateMutability": "nonpayable",
      "type": "function"
    },
    {
      "inputs": [
        {
          "internalType": "address",
          "name": "from",
          "type": "address"
        },
        {
          "internalType": "address",
          "name": "to",
          "type": "address"
        },
        {
          "internalType": "uint256",
          "name": "tokenId",
          "type": "uint256"
        },
        {
          "internalType": "bytes",
          "name": "data",
          "type": "bytes"
        }
      ],
      "name": "safeTransferFrom",
      "outputs": [],
      "stateMutability": "nonpayable",
      "type": "function"
    },
    {
      "inputs": [
        {
          "internalType": "address",
          "name": "operator",
          "type": "address"
        },
        {
          "internalType": "bool",
          "name": "approved",
          "type": "bool"
        }
      ],
      "name": "setApprovalForAll",
      "outputs": [],
      "stateMutability": "nonpayable",
      "type": "function"
    },
    {
      "inputs": [
        {
          "internalType": "bytes4",
          "name": "interfaceId",
          "type": "bytes4"
        }
      ],
      "name": "supportsInterface",
      "outputs": [
        {
          "internalType": "bool",
          "name": "",
          "type": "bool"
        }
      ],
      "stateMutability": "view",
      "type": "function"
    },
    {
      "inputs": [],
      "name": "symbol",
      "outputs": [
        {
          "internalType": "string",
          "name": "",
          "type": "string"
        }
      ],
      "stateMutability": "view",
      "type": "function"
    },
    {
      "inputs": [
        {
          "internalType": "uint256",
          "name": "tokenId",
          "type": "uint256"
        }
      ],
      "name": "tokenURI",
      "outputs": [
        {
          "internalType": "string",
          "name": "",
          "type": "string"
        }
      ],
      "stateMutability": "view",
      "type": "function"
    },
    {
      "inputs": [
        {
          "internalType": "address",
          "name": "from",
          "type": "address"
        },
        {
          "internalType": "address",
          "name": "to",
          "type": "address"
        },
        {
          "internalType": "uint256",
          "name": "tokenId",
          "type": "uint256"
        }
      ],
      "name": "transferFrom",
      "outputs": [],
      "stateMutability": "nonpayable",
      "type": "function"
    },
    {
      "inputs": [
        {
          "internalType": "address",
          "name": "newOwner",
          "type": "address"
        }
      ],
      "name": "transferOwnership",
      "outputs": [],
      "stateMutability": "nonpayable",
      "type": "function"
    },
    {
      "inputs": [
        {
          "internalType": "uint256",
          "name": "tokenId",
          "type": "uint256"
        },
        {
          "internalType": "string",
          "name": "newTokenURI",
          "type": "string"
        }
      ],
      "name": "updateMetadata",
      "outputs": [],
      "stateMutability": "nonpayable",
      "type": "function"
    }
  ],
  "bytecode": "0x60806040523480156200001157600080fd5b506040518060400160405280601181526020017022a9219b9918a4b73a32b3b930ba34b7b760791b815250604051806040016040528060048152602001634537323160e01b815250818181600090816200006c91906200019b565b5060016200007b82826200019b565b5050506200009862000092620000a060201b60201c565b620000a4565b505062000267565b3390565b600680546001600160a01b038381166001600160a01b0319831681179093556040519116919082907f8be0079c531659141344cd1fd0a4f28419497f9722a3daafe3b4186f6b6457e090600090a35050565b634e487b7160e01b600052604160045260246000fd5b600181811c908216806200012157607f821691505b6020821081036200014257634e487b7160e01b600052602260045260246000fd5b50919050565b601f8211156200019657600081815260208120601f850160051c81016020861015620001715750805b601f850160051c820191505b8181101562000192578281556001016200017d565b5050505b505050565b81516001600160401b03811115620001b757620001b7620000f6565b620001cf81620001c884546200010c565b8462000148565b602080601f831160018114620002075760008415620001ee5750858301515b600019600386901b1c1916600185901b17855562000192565b600085815260208120601f198616915b82811015620002385788860151825594840194600190910190840162000217565b5085821015620002575787850151600019600388901b60f8161c191681555b5050505050600190811b01905550565b61181280620002776000396000f3fe608060405234801561001057600080fd5b50600436106101215760003560e01c806370a08231116100ad578063b88d4fde11610071578063b88d4fde14610257578063c87b56dd1461026a578063d0def5211461027d578063e985e9c514610290578063f2fde38b146102cc57600080fd5b806370a0823114610202578063715018a6146102235780638da5cb5b1461022b57806395d89b411461023c578063a22cb4651461024457600080fd5b806323b872dd116100f457806323b872dd146101a357806342842e0e146101b657806353c8388e146101c9578063589a1743146101dc5780636352211e146101ef57600080fd5b806301ffc9a71461012657806306fdde031461014e578063081812fc14610163578063095ea7b31461018e575b600080fd5b610139610134366004611192565b6102df565b60405190151581526020015b60405180910390f35b61015661030a565b60405161014591906111fc565b61017661017136600461120f565b61039c565b6040516001600160a01b039091168152602001610145565b6101a161019c366004611244565b6103c3565b005b6101a16101b136600461126e565b6104dd565b6101a16101c436600461126e565b61050e565b6101a16101d73660046112f3565b610529565b6101766101ea36600461120f565b610621565b6101766101fd36600461120f565b61066a565b61021561021036600461133f565b6106ca565b604051908152602001610145565b6101a1610750565b6006546001600160a01b0316610176565b610156610764565b6101a161025236600461135a565b610773565b6101a16102653660046113ac565b610782565b61015661027836600461120f565b6107ba565b61021561028b366004611488565b610881565b61013961029e3660046114c2565b6001600160a01b03918216600090815260056020908152604080832093909416825291909152205460ff1690565b6101a16102da36600461133f565b610896565b60006001600160e01b031982166313f78c3160e01b148061030457506103048261090f565b92915050565b606060008054610319906114f5565b80601f0160208091040260200160405190810160405280929190818152602001828054610345906114f5565b80156103925780601f1061036757610100808354040283529160200191610392565b820191906000526020600020905b81548152906001019060200180831161037557829003601f168201915b5050505050905090565b60006103a78261095f565b506000908152600460205260409020546001600160a01b031690565b60006103ce8261066a565b9050806001600160a01b0316836001600160a01b0316036104405760405162461bcd60e51b815260206004820152602160248201527f4552433732313a20617070726f76616c20746f2063757272656e74206f776e656044820152603960f91b60648201526084015b60405180910390fd5b336001600160a01b038216148061045c575061045c813361029e565b6104ce5760405162461bcd60e51b815260206004820152603d60248201527f4552433732313a20617070726f76652063616c6c6572206973206e6f7420746f60448201527f6b656e206f776e6572206f7220617070726f76656420666f7220616c6c0000006064820152608401610437565b6104d883836109af565b505050565b6104e73382610a1d565b6105035760405162461bcd60e51b815260040161043790611529565b6104d8838383610a9b565b6104d883838360405180602001604052806000815250610782565b8261053381610bff565b61054f5760405162461bcd60e51b815260040161043790611576565b6000848152600860205260409020546001600160a01b031633146105c75760405162461bcd60e51b815260206004820152602960248201527f455243373030373a204f6e6c792063726561746f722063616e20757064617465604482015268206d6574616461746160b81b6064820152608401610437565b60008481526009602052604090206105e08385836115fb565b50837f459157ba24c7ab9878b165ef465fa6ae2ab42bcd8445f576be378768b0c4730984846040516106139291906116bc565b60405180910390a250505050565b60008161062d81610bff565b6106495760405162461bcd60e51b815260040161043790611576565b6000838152600860205260409020546001600160a01b031691505b50919050565b6000818152600260205260408120546001600160a01b0316806103045760405162461bcd60e51b8152602060048201526018602482015277115490cdcc8c4e881a5b9d985b1a59081d1bdad95b88125160421b6044820152606401610437565b60006001600160a01b0382166107345760405162461bcd60e51b815260206004820152602960248201527f4552433732313a2061646472657373207a65726f206973206e6f7420612076616044820152683634b21037bbb732b960b91b6064820152608401610437565b506001600160a01b031660009081526003602052604090205490565b610758610c1c565b6107626000610c76565b565b606060018054610319906114f5565b61077e338383610cc8565b5050565b61078c3383610a1d565b6107a85760405162461bcd60e51b815260040161043790611529565b6107b484848484610d96565b50505050565b6060816107c681610bff565b6107e25760405162461bcd60e51b815260040161043790611576565b600083815260096020526040902080546107fb906114f5565b80601f0160208091040260200160405190810160405280929190818152602001828054610827906114f5565b80156108745780601f1061084957610100808354040283529160200191610874565b820191906000526020600020905b81548152906001019060200180831161085757829003601f168201915b5050505050915050919050565b600061088e848484610dc9565b949350505050565b61089e610c1c565b6001600160a01b0381166109035760405162461bcd60e51b815260206004820152602660248201527f4f776e61626c653a206e6577206f776e657220697320746865207a65726f206160448201526564647265737360d01b6064820152608401610437565b61090c81610c76565b50565b60006001600160e01b031982166380ac58cd60e01b148061094057506001600160e01b03198216635b5e139f60e01b145b8061030457506301ffc9a760e01b6001600160e01b0319831614610304565b61096881610bff565b61090c5760405162461bcd60e51b8152602060048201526018602482015277115490cdcc8c4e881a5b9d985b1a59081d1bdad95b88125160421b6044820152606401610437565b600081815260046020526040902080546001600160a01b0319166001600160a01b03841690811790915581906109e48261066a565b6001600160a01b03167f8c5be1e5ebec7d5bd14f71427d1e84f3dd0314c0f7b2291e5b200ac8c7c3b92560405160405180910390a45050565b600080610a298361066a565b9050806001600160a01b0316846001600160a01b03161480610a7057506001600160a01b0380821660009081526005602090815260408083209388168352929052205460ff165b8061088e5750836001600160a01b0316610a898461039c565b6001600160a01b031614949350505050565b826001600160a01b0316610aae8261066a565b6001600160a01b031614610ad45760405162461bcd60e51b8152600401610437906116eb565b6001600160a01b038216610b365760405162461bcd60e51b8152602060048201526024808201527f4552433732313a207472616e7366657220746f20746865207a65726f206164646044820152637265737360e01b6064820152608401610437565b826001600160a01b0316610b498261066a565b6001600160a01b031614610b6f5760405162461bcd60e51b8152600401610437906116eb565b600081815260046020908152604080832080546001600160a01b03199081169091556001600160a01b0387811680865260038552838620805460001901905590871680865283862080546001019055868652600290945282852080549092168417909155905184937fddf252ad1be2c89b69c2b068fc378daa952ba7f163c4a11628f55a4df523b3ef91a4505050565b6000908152600260205260409020546001600160a01b0316151590565b6006546001600160a01b031633146107625760405162461bcd60e51b815260206004820181905260248201527f4f776e61626c653a2063616c6c6572206973206e6f7420746865206f776e65726044820152606401610437565b600680546001600160a01b038381166001600160a01b0319831681179093556040519116919082907f8be0079c531659141344cd1fd0a4f28419497f9722a3daafe3b4186f6b6457e090600090a35050565b816001600160a01b0316836001600160a01b031603610d295760405162461bcd60e51b815260206004820152601960248201527f4552433732313a20617070726f766520746f2063616c6c6572000000000000006044820152606401610437565b6001600160a01b03838116600081815260056020908152604080832094871680845294825291829020805460ff191686151590811790915591519182527f17307eab39ab6107e8899845ad3d59bd9653f200f220920489ca2b5937696c31910160405180910390a3505050565b610da1848484610a9b565b610dad84848484610ec6565b6107b45760405162461bcd60e51b815260040161043790611730565b60006001600160a01b038416610e215760405162461bcd60e51b815260206004820152601d60248201527f455243373030373a206d696e7420746f207a65726f20616464726573730000006044820152606401610437565b610e2f600780546001019055565b6000610e3a60075490565b9050610e468582610fc7565b600081815260086020908152604080832080546001600160a01b0319163317905560099091529020610e798486836115fb565b50336001600160a01b0316817fec2cd236ed6d37bf5a71276ac93889db12834493a090efd543a3d2eca8dcdcc88686604051610eb69291906116bc565b60405180910390a3949350505050565b60006001600160a01b0384163b15610fbc57604051630a85bd0160e11b81526001600160a01b0385169063150b7a0290610f0a903390899088908890600401611782565b6020604051808303816000875af1925050508015610f45575060408051601f3d908101601f19168201909252610f42918101906117bf565b60015b610fa2573d808015610f73576040519150601f19603f3d011682016040523d82523d6000602084013e610f78565b606091505b508051600003610f9a5760405162461bcd60e51b815260040161043790611730565b805181602001fd5b6001600160e01b031916630a85bd0160e11b14905061088e565b506001949350505050565b61077e828260405180602001604052806000815250610fe6838361100f565b610ff36000848484610ec6565b6104d85760405162461bcd60e51b815260040161043790611730565b6001600160a01b0382166110655760405162461bcd60e51b815260206004820181905260248201527f4552433732313a206d696e7420746f20746865207a65726f20616464726573736044820152606401610437565b61106e81610bff565b156110bb5760405162461bcd60e51b815260206004820152601c60248201527f4552433732313a20746f6b656e20616c7265616479206d696e746564000000006044820152606401610437565b6110c481610bff565b156111115760405162461bcd60e51b815260206004820152601c60248201527f4552433732313a20746f6b656e20616c7265616479206d696e746564000000006044820152606401610437565b6001600160a01b038216600081815260036020908152604080832080546001019055848352600290915280822080546001600160a01b0319168417905551839291907fddf252ad1be2c89b69c2b068fc378daa952ba7f163c4a11628f55a4df523b3ef908290a45050565b6001600160e01b03198116811461090c57600080fd5b6000602082840312156111a457600080fd5b81356111af8161117c565b9392505050565b6000815180845260005b818110156111dc576020818501810151868301820152016111c0565b506000602082860101526020601f19601f83011685010191505092915050565b6020815260006111af60208301846111b6565b60006020828403121561122157600080fd5b5035919050565b80356001600160a01b038116811461123f57600080fd5b919050565b6000806040838503121561125757600080fd5b61126083611228565b946020939093013593505050565b60008060006060848603121561128357600080fd5b61128c84611228565b925061129a60208501611228565b9150604084013590509250925092565b60008083601f8401126112bc57600080fd5b50813567ffffffffffffffff8111156112d457600080fd5b6020830191508360208285010111156112ec57600080fd5b9250929050565b60008060006040848603121561130857600080fd5b83359250602084013567ffffffffffffffff81111561132657600080fd5b611332868287016112aa565b9497909650939450505050565b60006020828403121561135157600080fd5b6111af82611228565b6000806040838503121561136d57600080fd5b61137683611228565b91506020830135801515811461138b57600080fd5b809150509250929050565b634e487b7160e01b600052604160045260246000fd5b600080600080608085870312156113c257600080fd5b6113cb85611228565b93506113d960208601611228565b925060408501359150606085013567ffffffffffffffff808211156113fd57600080fd5b818701915087601f83011261141157600080fd5b81358181111561142357611423611396565b604051601f8201601f19908116603f0116810190838211818310171561144b5761144b611396565b816040528281528a602084870101111561146457600080fd5b82602086016020830137600060208483010152809550505050505092959194509250565b60008060006040848603121561149d57600080fd5b6114a684611228565b9250602084013567ffffffffffffffff81111561132657600080fd5b600080604083850312156114d557600080fd5b6114de83611228565b91506114ec60208401611228565b90509250929050565b600181811c9082168061150957607f821691505b60208210810361066457634e487b7160e01b600052602260045260246000fd5b6020808252602d908201527f4552433732313a2063616c6c6572206973206e6f7420746f6b656e206f776e6560408201526c1c881bdc88185c1c1c9bdd9959609a1b606082015260800190565b6020808252601d908201527f455243373030373a20546f6b656e20646f6573206e6f74206578697374000000604082015260600190565b601f8211156104d857600081815260208120601f850160051c810160208610156115d45750805b601f850160051c820191505b818110156115f3578281556001016115e0565b505050505050565b67ffffffffffffffff83111561161357611613611396565b6116278361162183546114f5565b836115ad565b6000601f84116001811461165b57600085156116435750838201355b600019600387901b1c1916600186901b1783556116b5565b600083815260209020601f19861690835b8281101561168c578685013582556020948501946001909201910161166c565b50868210156116a95760001960f88860031b161c19848701351681555b505060018560011b0183555b5050505050565b60208152816020820152818360408301376000818301604090810191909152601f909201601f19160101919050565b60208082526025908201527f4552433732313a207472616e736665722066726f6d20696e636f72726563742060408201526437bbb732b960d91b606082015260800190565b60208082526032908201527f4552433732313a207472616e7366657220746f206e6f6e20455243373231526560408201527131b2b4bb32b91034b6b83632b6b2b73a32b960711b606082015260800190565b6001600160a01b03858116825284166020820152604081018390526080606082018190526000906117b5908301846111b6565b9695505050505050565b6000602082840312156117d157600080fd5b81516111af8161117c56fea2646970667358221220d442e019d9a7c72da4830ae19371a8b0a66936004ab640465cc4015602a3493464736f6c63430008130033",
  "linkReferences": {},
  "deployedLinkReferences": {}
}