{
  "_format": "hh-sol-artifact-1",
  "contractName": "ERC7007Music",
  "sourceName": "contracts/extensions/ERC7007Music.sol",
  "abi": [
    {
      "inputs": [],
      "stateMutability": "nonpayable",
      "type": "constructor"
    },
    {
      "anonymous": false,
      "inputs": [
        {
          "indexed": true,
          "internalType": "address",
          "name": "owner",
          "type": "address"
        },
        {
          "indexed": true,
          "internalType": "address",
          "name": "approved",
          "type": "address"
        },
        {
          "indexed": true,
          "internalType": "uint256",
          "name": "tokenId",
          "type": "uint256"
        }
      ],
      "name": "Approval",
      "type": "event"
    },
    {
      "anonymous": false,
      "inputs": [
        {
          "indexed": true,
          "internalType": "address",
          "name": "owner",
          "type": "address"
        },
        {
          "indexed": true,
          "internalType": "address",
          "name": "operator",
          "type": "address"
        },
        {
          "indexed": false,
          "internalType": "bool",
          "name": "approved",
          "type": "bool"
        }
      ],
      "name": "ApprovalForAll",
      "type": "event"
    },
    {
      "anonymous": false,
      "inputs": [
        {
          "indexed": true,
          "internalType": "uint256",
          "name": "tokenId",
          "type": "uint256"
        },
        {
          "indexed": false,
          "internalType": "string",
          "name": "newTokenURI",
          "type": "string"
        }
      ],
      "name": "MetadataUpdated",
      "type": "event"
    },
    {
      "anonymous": false,
      "inputs": [
        {
          "indexed": true,
          "internalType": "uint256",
          "name": "tokenId",
          "type": "uint256"
        },
        {
          "indexed": false,
          "internalType": "string",
          "name": "genre",
          "type": "string"
        },
        {
          "indexed": false,
          "internalType": "uint256",
          "name": "duration",
          "type": "uint256"
        },
        {
          "indexed": false,
          "internalType": "string",
          "name": "license",
          "type": "string"
        }
      ],
      "name": "MusicDetailsSet",
      "type": "event"
    },
    {
      "anonymous": false,
      "inputs": [
        {
          "indexed": true,
          "internalType": "address",
          "name": "previousOwner",
          "type": "address"
        },
        {
          "indexed": true,
          "internalType": "address",
          "name": "newOwner",
          "type": "address"
        }
      ],
      "name": "OwnershipTransferred",
      "type": "event"
    },
    {
      "anonymous": false,
      "inputs": [
        {
          "indexed": true,
          "internalType": "uint256",
          "name": "tokenId",
          "type": "uint256"
        },
        {
          "indexed": true,
          "internalType": "address",
          "name": "creator",
          "type": "address"
        },
        {
          "indexed": false,
          "internalType": "string",
          "name": "tokenURI",
          "type": "string"
        }
      ],
      "name": "TokenMinted",
      "type": "event"
    },
    {
      "anonymous": false,
      "inputs": [
        {
          "indexed": true,
          "internalType": "address",
          "name": "from",
          "type": "address"
        },
        {
          "indexed": true,
          "internalType": "address",
          "name": "to",
          "type": "address"
        },
        {
          "indexed": true,
          "internalType": "uint256",
          "name": "tokenId",
          "type": "uint256"
        }
      ],
      "name": "Transfer",
      "type": "event"
    },
    {
      "inputs": [
        {
          "internalType": "address",
          "name": "to",
          "type": "address"
        },
        {
          "internalType": "uint256",
          "name": "tokenId",
          "type": "uint256"
        }
      ],
      "name": "approve",
      "outputs": [],
      "stateMutability": "nonpayable",
      "type": "function"
    },
    {
      "inputs": [
        {
          "internalType": "address",
          "name": "owner",
          "type": "address"
        }
      ],
      "name": "balanceOf",
      "outputs": [
        {
          "internalType": "uint256",
          "name": "",
          "type": "uint256"
        }
      ],
      "stateMutability": "view",
      "type": "function"
    },
    {
      "inputs": [
        {
          "internalType": "uint256",
          "name": "tokenId",
          "type": "uint256"
        }
      ],
      "name": "creatorOf",
      "outputs": [
        {
          "internalType": "address",
          "name": "",
          "type": "address"
        }
      ],
      "stateMutability": "view",
      "type": "function"
    },
    {
      "inputs": [
        {
          "internalType": "uint256",
          "name": "tokenId",
          "type": "uint256"
        }
      ],
      "name": "getApproved",
      "outputs": [
        {
          "internalType": "address",
          "name": "",
          "type": "address"
        }
      ],
      "stateMutability": "view",
      "type": "function"
    },
    {
      "inputs": [
        {
          "internalType": "uint256",
          "name": "tokenId",
          "type": "uint256"
        }
      ],
      "name": "getMusicDetails",
      "outputs": [
        {
          "components": [
            {
              "internalType": "string",
              "name": "genre",
              "type": "string"
            },
            {
              "internalType": "uint256",
              "name": "duration",
              "type": "uint256"
            },
            {
              "internalType": "string",
              "name": "license",
              "type": "string"
            },
            {
              "internalType": "bool",
              "name": "initialized",
              "type": "bool"
            }
          ],
          "internalType": "struct ERC7007Music.MusicMetadata",
          "name": "",
          "type": "tuple"
        }
      ],
      "stateMutability": "view",
      "type": "function"
    },
    {
      "inputs": [
        {
          "internalType": "address",
          "name": "owner",
          "type": "address"
        },
        {
          "internalType": "address",
          "name": "operator",
          "type": "address"
        }
      ],
      "name": "isApprovedForAll",
      "outputs": [
        {
          "internalType": "bool",
          "name": "",
          "type": "bool"
        }
      ],
      "stateMutability": "view",
      "type": "function"
    },
    {
      "inputs": [
        {
          "internalType": "address",
          "name": "to",
          "type": "address"
        },
        {
          "internalType": "string",
          "name": "tokenURI_",
          "type": "string"
        }
      ],
      "name": "mint",
      "outputs": [
        {
          "internalType": "uint256",
          "name": "",
          "type": "uint256"
        }
      ],
      "stateMutability": "nonpayable",
      "type": "function"
    },
    {
      "inputs": [],
      "name": "name",
      "outputs": [
        {
          "internalType": "string",
          "name": "",
          "type": "string"
        }
      ],
      "stateMutability": "view",
      "type": "function"
    },
    {
      "inputs": [],
      "name": "owner",
      "outputs": [
        {
          "internalType": "address",
          "name": "",
          "type": "address"
        }
      ],
      "stateMutability": "view",
      "type": "function"
    },
    {
      "inputs": [
        {
          "internalType": "uint256",
          "name": "tokenId",
          "type": "uint256"
        }
      ],
      "name": "ownerOf",
      "outputs": [
        {
          "internalType": "address",
          "name": "",
          "type": "address"
        }
      ],
      "stateMutability": "view",
      "type": "function"
    },
    {
      "inputs": [],
      "name": "renounceOwnership",
      "outputs": [],
      "stateMutability": "nonpayable",
      "type": "function"
    },
    {
      "inputs": [
        {
          "internalType": "address",
          "name": "from",
          "type": "address"
        },
        {
          "internalType": "address",
          "name": "to",
          "type": "address"
        },
        {
          "internalType": "uint256",
          "name": "tokenId",
          "type": "uint256"
        }
      ],
      "name": "safeTransferFrom",
      "outputs": [],
      "stateMutability": "nonpayable",
      "type": "function"
    },
    {
      "inputs": [
        {
          "internalType": "address",
          "name": "from",
          "type": "address"
        },
        {
          "internalType": "address",
          "name": "to",
          "type": "address"
        },
        {
          "internalType": "uint256",
          "name": "tokenId",
          "type": "uint256"
        },
        {
          "internalType": "bytes",
          "name": "data",
          "type": "bytes"
        }
      ],
      "name": "safeTransferFrom",
      "outputs": [],
      "stateMutability": "nonpayable",
      "type": "function"
    },
    {
      "inputs": [
        {
          "internalType": "address",
          "name": "operator",
          "type": "address"
        },
        {
          "internalType": "bool",
          "name": "approved",
          "type": "bool"
        }
      ],
      "name": "setApprovalForAll",
      "outputs": [],
      "stateMutability": "nonpayable",
      "type": "function"
    },
    {
      "inputs": [
        {
          "internalType": "uint256",
          "name": "tokenId",
          "type": "uint256"
        },
        {
          "internalType": "string",
          "name": "genre",
          "type": "string"
        },
        {
          "internalType": "uint256",
          "name": "duration",
          "type": "uint256"
        },
        {
          "internalType": "string",
          "name": "license",
          "type": "string"
        }
      ],
      "name": "setMusicDetails",
      "outputs": [],
      "stateMutability": "nonpayable",
      "type": "function"
    },
    {
      "inputs": [
        {
          "internalType": "bytes4",
          "name": "interfaceId",
          "type": "bytes4"
        }
      ],
      "name": "supportsInterface",
      "outputs": [
        {
          "internalType": "bool",
          "name": "",
          "type": "bool"
        }
      ],
      "stateMutability": "view",
      "type": "function"
    },
    {
      "inputs": [],
      "name": "symbol",
      "outputs": [
        {
          "internalType": "string",
          "name": "",
          "type": "string"
        }
      ],
      "stateMutability": "view",
      "type": "function"
    },
    {
      "inputs": [
        {
          "internalType": "uint256",
          "name": "tokenId",
          "type": "uint256"
        }
      ],
      "name": "tokenURI",
      "outputs": [
        {
          "internalType": "string",
          "name": "",
          "type": "string"
        }
      ],
      "stateMutability": "view",
      "type": "function"
    },
    {
      "inputs": [
        {
          "internalType": "address",
          "name": "from",
          "type": "address"
        },
        {
          "internalType": "address",
          "name": "to",
          "type": "address"
        },
        {
          "internalType": "uint256",
          "name": "tokenId",
          "type": "uint256"
        }
      ],
      "name": "transferFrom",
      "outputs": [],
      "stateMutability": "nonpayable",
      "type": "function"
    },
    {
      "inputs": [
        {
          "internalType": "address",
          "name": "newOwner",
          "type": "address"
        }
      ],
      "name": "transferOwnership",
      "outputs": [],
      "stateMutability": "nonpayable",
      "type": "function"
    },
    {
      "inputs": [
        {
          "internalType": "uint256",
          "name": "tokenId",
          "type": "uint256"
        },
        {
          "internalType": "string",
          "name": "newTokenURI",
          "type": "string"
        }
      ],
      "name": "updateMetadata",
      "outputs": [],
      "stateMutability": "nonpayable",
      "type": "function"
    }
  ],
  "bytecode": "0x60806040523480156200001157600080fd5b506040518060400160405280600c81526020016b455243373030374d7573696360a01b815250604051806040016040528060058152602001644d5553494360d81b8152508181816000908162000068919062000197565b50600162000077828262000197565b505050620000946200008e6200009c60201b60201c565b620000a0565b505062000263565b3390565b600680546001600160a01b038381166001600160a01b0319831681179093556040519116919082907f8be0079c531659141344cd1fd0a4f28419497f9722a3daafe3b4186f6b6457e090600090a35050565b634e487b7160e01b600052604160045260246000fd5b600181811c908216806200011d57607f821691505b6020821081036200013e57634e487b7160e01b600052602260045260246000fd5b50919050565b601f8211156200019257600081815260208120601f850160051c810160208610156200016d5750805b601f850160051c820191505b818110156200018e5782815560010162000179565b5050505b505050565b81516001600160401b03811115620001b357620001b3620000f2565b620001cb81620001c4845462000108565b8462000144565b602080601f831160018114620002035760008415620001ea5750858301515b600019600386901b1c1916600185901b1785556200018e565b600085815260208120601f198616915b82811015620002345788860151825594840194600190910190840162000213565b5085821015620002535787850151600019600388901b60f8161c191681555b5050505050600190811b01905550565b611e6080620002736000396000f3fe608060405234801561001057600080fd5b50600436106101375760003560e01c8063715018a6116100b8578063c87b56dd1161007c578063c87b56dd14610280578063d0def52114610293578063d8df8bca146102a6578063da13a019146102b9578063e985e9c5146102d9578063f2fde38b1461031557600080fd5b8063715018a6146102395780638da5cb5b1461024157806395d89b4114610252578063a22cb4651461025a578063b88d4fde1461026d57600080fd5b806342842e0e116100ff57806342842e0e146101cc57806353c8388e146101df578063589a1743146101f25780636352211e1461020557806370a082311461021857600080fd5b806301ffc9a71461013c57806306fdde0314610164578063081812fc14610179578063095ea7b3146101a457806323b872dd146101b9575b600080fd5b61014f61014a3660046115b8565b610328565b60405190151581526020015b60405180910390f35b61016c610353565b60405161015b9190611622565b61018c610187366004611635565b6103e5565b6040516001600160a01b03909116815260200161015b565b6101b76101b236600461166a565b61040c565b005b6101b76101c7366004611694565b610526565b6101b76101da366004611694565b610557565b6101b76101ed366004611719565b610572565b61018c610200366004611635565b61066a565b61018c610213366004611635565b6106b3565b61022b610226366004611765565b610713565b60405190815260200161015b565b6101b7610799565b6006546001600160a01b031661018c565b61016c6107ad565b6101b7610268366004611780565b6107bc565b6101b761027b3660046117d2565b6107cb565b61016c61028e366004611635565b610803565b61022b6102a13660046118ae565b6108ca565b6101b76102b43660046118e8565b6108e1565b6102cc6102c7366004611635565b610aab565b60405161015b919061196b565b61014f6102e73660046119c7565b6001600160a01b03918216600090815260056020908152604080832093909416825291909152205460ff1690565b6101b7610323366004611765565b610cbb565b60006001600160e01b031982166313f78c3160e01b148061034d575061034d82610d34565b92915050565b606060008054610362906119fa565b80601f016020809104026020016040519081016040528092919081815260200182805461038e906119fa565b80156103db5780601f106103b0576101008083540402835291602001916103db565b820191906000526020600020905b8154815290600101906020018083116103be57829003601f168201915b5050505050905090565b60006103f082610d84565b506000908152600460205260409020546001600160a01b031690565b6000610417826106b3565b9050806001600160a01b0316836001600160a01b0316036104895760405162461bcd60e51b815260206004820152602160248201527f4552433732313a20617070726f76616c20746f2063757272656e74206f776e656044820152603960f91b60648201526084015b60405180910390fd5b336001600160a01b03821614806104a557506104a581336102e7565b6105175760405162461bcd60e51b815260206004820152603d60248201527f4552433732313a20617070726f76652063616c6c6572206973206e6f7420746f60448201527f6b656e206f776e6572206f7220617070726f76656420666f7220616c6c0000006064820152608401610480565b6105218383610dd4565b505050565b6105303382610e42565b61054c5760405162461bcd60e51b815260040161048090611a2e565b610521838383610ec1565b610521838383604051806020016040528060008152506107cb565b8261057c81611025565b6105985760405162461bcd60e51b815260040161048090611a7b565b6000848152600860205260409020546001600160a01b031633146106105760405162461bcd60e51b815260206004820152602960248201527f455243373030373a204f6e6c792063726561746f722063616e20757064617465604482015268206d6574616461746160b81b6064820152608401610480565b6000848152600960205260409020610629838583611b00565b50837f459157ba24c7ab9878b165ef465fa6ae2ab42bcd8445f576be378768b0c47309848460405161065c929190611bea565b60405180910390a250505050565b60008161067681611025565b6106925760405162461bcd60e51b815260040161048090611a7b565b6000838152600860205260409020546001600160a01b031691505b50919050565b6000818152600260205260408120546001600160a01b03168061034d5760405162461bcd60e51b8152602060048201526018602482015277115490cdcc8c4e881a5b9d985b1a59081d1bdad95b88125160421b6044820152606401610480565b60006001600160a01b03821661077d5760405162461bcd60e51b815260206004820152602960248201527f4552433732313a2061646472657373207a65726f206973206e6f7420612076616044820152683634b21037bbb732b960b91b6064820152608401610480565b506001600160a01b031660009081526003602052604090205490565b6107a1611042565b6107ab600061109c565b565b606060018054610362906119fa565b6107c73383836110ee565b5050565b6107d53383610e42565b6107f15760405162461bcd60e51b815260040161048090611a2e565b6107fd848484846111bc565b50505050565b60608161080f81611025565b61082b5760405162461bcd60e51b815260040161048090611a7b565b60008381526009602052604090208054610844906119fa565b80601f0160208091040260200160405190810160405280929190818152602001828054610870906119fa565b80156108bd5780601f10610892576101008083540402835291602001916108bd565b820191906000526020600020905b8154815290600101906020018083116108a057829003601f168201915b5050505050915050919050565b6000806108d88585856111ef565b95945050505050565b6108ea86611025565b6109065760405162461bcd60e51b815260040161048090611bfe565b61090f8661066a565b6001600160a01b0316336001600160a01b0316146109825760405162461bcd60e51b815260206004820152602a60248201527f455243373030374d757369633a204f6e6c792063726561746f722063616e207360448201526965742064657461696c7360b01b6064820152608401610480565b604051806080016040528086868080601f016020809104026020016040519081016040528093929190818152602001838380828437600092019190915250505090825250602080820186905260408051601f8601839004830281018301825285815292019190859085908190840183828082843760009201829052509385525050600160209384015250888152600a9091526040902081518190610a269082611c40565b506020820151600182015560408201516002820190610a459082611c40565b50606091909101516003909101805460ff191691151591909117905560405186907f657d40dcade5bc9589d9a9578aab9535c2beb22b002fd5426a3fd14c47769baa90610a9b9088908890889088908890611d00565b60405180910390a2505050505050565b610ad860405180608001604052806060815260200160008152602001606081526020016000151581525090565b610ae182611025565b610afd5760405162461bcd60e51b815260040161048090611bfe565b6000828152600a602052604090206003015460ff16610b5e5760405162461bcd60e51b815260206004820152601d60248201527f455243373030374d757369633a2044657461696c73206e6f74207365740000006044820152606401610480565b6000828152600a602052604090819020815160808101909252805482908290610b86906119fa565b80601f0160208091040260200160405190810160405280929190818152602001828054610bb2906119fa565b8015610bff5780601f10610bd457610100808354040283529160200191610bff565b820191906000526020600020905b815481529060010190602001808311610be257829003601f168201915b5050505050815260200160018201548152602001600282018054610c22906119fa565b80601f0160208091040260200160405190810160405280929190818152602001828054610c4e906119fa565b8015610c9b5780601f10610c7057610100808354040283529160200191610c9b565b820191906000526020600020905b815481529060010190602001808311610c7e57829003601f168201915b50505091835250506003919091015460ff16151560209091015292915050565b610cc3611042565b6001600160a01b038116610d285760405162461bcd60e51b815260206004820152602660248201527f4f776e61626c653a206e6577206f776e657220697320746865207a65726f206160448201526564647265737360d01b6064820152608401610480565b610d318161109c565b50565b60006001600160e01b031982166380ac58cd60e01b1480610d6557506001600160e01b03198216635b5e139f60e01b145b8061034d57506301ffc9a760e01b6001600160e01b031983161461034d565b610d8d81611025565b610d315760405162461bcd60e51b8152602060048201526018602482015277115490cdcc8c4e881a5b9d985b1a59081d1bdad95b88125160421b6044820152606401610480565b600081815260046020526040902080546001600160a01b0319166001600160a01b0384169081179091558190610e09826106b3565b6001600160a01b03167f8c5be1e5ebec7d5bd14f71427d1e84f3dd0314c0f7b2291e5b200ac8c7c3b92560405160405180910390a45050565b600080610e4e836106b3565b9050806001600160a01b0316846001600160a01b03161480610e9557506001600160a01b0380821660009081526005602090815260408083209388168352929052205460ff165b80610eb95750836001600160a01b0316610eae846103e5565b6001600160a01b0316145b949350505050565b826001600160a01b0316610ed4826106b3565b6001600160a01b031614610efa5760405162461bcd60e51b815260040161048090611d39565b6001600160a01b038216610f5c5760405162461bcd60e51b8152602060048201526024808201527f4552433732313a207472616e7366657220746f20746865207a65726f206164646044820152637265737360e01b6064820152608401610480565b826001600160a01b0316610f6f826106b3565b6001600160a01b031614610f955760405162461bcd60e51b815260040161048090611d39565b600081815260046020908152604080832080546001600160a01b03199081169091556001600160a01b0387811680865260038552838620805460001901905590871680865283862080546001019055868652600290945282852080549092168417909155905184937fddf252ad1be2c89b69c2b068fc378daa952ba7f163c4a11628f55a4df523b3ef91a4505050565b6000908152600260205260409020546001600160a01b0316151590565b6006546001600160a01b031633146107ab5760405162461bcd60e51b815260206004820181905260248201527f4f776e61626c653a2063616c6c6572206973206e6f7420746865206f776e65726044820152606401610480565b600680546001600160a01b038381166001600160a01b0319831681179093556040519116919082907f8be0079c531659141344cd1fd0a4f28419497f9722a3daafe3b4186f6b6457e090600090a35050565b816001600160a01b0316836001600160a01b03160361114f5760405162461bcd60e51b815260206004820152601960248201527f4552433732313a20617070726f766520746f2063616c6c6572000000000000006044820152606401610480565b6001600160a01b03838116600081815260056020908152604080832094871680845294825291829020805460ff191686151590811790915591519182527f17307eab39ab6107e8899845ad3d59bd9653f200f220920489ca2b5937696c31910160405180910390a3505050565b6111c7848484610ec1565b6111d3848484846112ec565b6107fd5760405162461bcd60e51b815260040161048090611d7e565b60006001600160a01b0384166112475760405162461bcd60e51b815260206004820152601d60248201527f455243373030373a206d696e7420746f207a65726f20616464726573730000006044820152606401610480565b611255600780546001019055565b600061126060075490565b905061126c85826113ed565b600081815260086020908152604080832080546001600160a01b031916331790556009909152902061129f848683611b00565b50336001600160a01b0316817fec2cd236ed6d37bf5a71276ac93889db12834493a090efd543a3d2eca8dcdcc886866040516112dc929190611bea565b60405180910390a3949350505050565b60006001600160a01b0384163b156113e257604051630a85bd0160e11b81526001600160a01b0385169063150b7a0290611330903390899088908890600401611dd0565b6020604051808303816000875af192505050801561136b575060408051601f3d908101601f1916820190925261136891810190611e0d565b60015b6113c8573d808015611399576040519150601f19603f3d011682016040523d82523d6000602084013e61139e565b606091505b5080516000036113c05760405162461bcd60e51b815260040161048090611d7e565b805181602001fd5b6001600160e01b031916630a85bd0160e11b149050610eb9565b506001949350505050565b6107c782826040518060200160405280600081525061140c8383611435565b61141960008484846112ec565b6105215760405162461bcd60e51b815260040161048090611d7e565b6001600160a01b03821661148b5760405162461bcd60e51b815260206004820181905260248201527f4552433732313a206d696e7420746f20746865207a65726f20616464726573736044820152606401610480565b61149481611025565b156114e15760405162461bcd60e51b815260206004820152601c60248201527f4552433732313a20746f6b656e20616c7265616479206d696e746564000000006044820152606401610480565b6114ea81611025565b156115375760405162461bcd60e51b815260206004820152601c60248201527f4552433732313a20746f6b656e20616c7265616479206d696e746564000000006044820152606401610480565b6001600160a01b038216600081815260036020908152604080832080546001019055848352600290915280822080546001600160a01b0319168417905551839291907fddf252ad1be2c89b69c2b068fc378daa952ba7f163c4a11628f55a4df523b3ef908290a45050565b6001600160e01b031981168114610d3157600080fd5b6000602082840312156115ca57600080fd5b81356115d5816115a2565b9392505050565b6000815180845260005b81811015611602576020818501810151868301820152016115e6565b506000602082860101526020601f19601f83011685010191505092915050565b6020815260006115d560208301846115dc565b60006020828403121561164757600080fd5b5035919050565b80356001600160a01b038116811461166557600080fd5b919050565b6000806040838503121561167d57600080fd5b6116868361164e565b946020939093013593505050565b6000806000606084860312156116a957600080fd5b6116b28461164e565b92506116c06020850161164e565b9150604084013590509250925092565b60008083601f8401126116e257600080fd5b50813567ffffffffffffffff8111156116fa57600080fd5b60208301915083602082850101111561171257600080fd5b9250929050565b60008060006040848603121561172e57600080fd5b83359250602084013567ffffffffffffffff81111561174c57600080fd5b611758868287016116d0565b9497909650939450505050565b60006020828403121561177757600080fd5b6115d58261164e565b6000806040838503121561179357600080fd5b61179c8361164e565b9150602083013580151581146117b157600080fd5b809150509250929050565b634e487b7160e01b600052604160045260246000fd5b600080600080608085870312156117e857600080fd5b6117f18561164e565b93506117ff6020860161164e565b925060408501359150606085013567ffffffffffffffff8082111561182357600080fd5b818701915087601f83011261183757600080fd5b813581811115611849576118496117bc565b604051601f8201601f19908116603f01168101908382118183101715611871576118716117bc565b816040528281528a602084870101111561188a57600080fd5b82602086016020830137600060208483010152809550505050505092959194509250565b6000806000604084860312156118c357600080fd5b6118cc8461164e565b9250602084013567ffffffffffffffff81111561174c57600080fd5b6000806000806000806080878903121561190157600080fd5b86359550602087013567ffffffffffffffff8082111561192057600080fd5b61192c8a838b016116d0565b909750955060408901359450606089013591508082111561194c57600080fd5b5061195989828a016116d0565b979a9699509497509295939492505050565b60208152600082516080602084015261198760a08401826115dc565b9050602084015160408401526040840151601f198483030160608501526119ae82826115dc565b9150506060840151151560808401528091505092915050565b600080604083850312156119da57600080fd5b6119e38361164e565b91506119f16020840161164e565b90509250929050565b600181811c90821680611a0e57607f821691505b6020821081036106ad57634e487b7160e01b600052602260045260246000fd5b6020808252602d908201527f4552433732313a2063616c6c6572206973206e6f7420746f6b656e206f776e6560408201526c1c881bdc88185c1c1c9bdd9959609a1b606082015260800190565b6020808252601d908201527f455243373030373a20546f6b656e20646f6573206e6f74206578697374000000604082015260600190565b601f82111561052157600081815260208120601f850160051c81016020861015611ad95750805b601f850160051c820191505b81811015611af857828155600101611ae5565b505050505050565b67ffffffffffffffff831115611b1857611b186117bc565b611b2c83611b2683546119fa565b83611ab2565b6000601f841160018114611b605760008515611b485750838201355b600019600387901b1c1916600186901b178355611bba565b600083815260209020601f19861690835b82811015611b915786850135825560209485019460019092019101611b71565b5086821015611bae5760001960f88860031b161c19848701351681555b505060018560011b0183555b5050505050565b81835281816020850137506000828201602090810191909152601f909101601f19169091010190565b602081526000610eb9602083018486611bc1565b60208082526022908201527f455243373030374d757369633a20546f6b656e20646f6573206e6f74206578696040820152611cdd60f21b606082015260800190565b815167ffffffffffffffff811115611c5a57611c5a6117bc565b611c6e81611c6884546119fa565b84611ab2565b602080601f831160018114611ca35760008415611c8b5750858301515b600019600386901b1c1916600185901b178555611af8565b600085815260208120601f198616915b82811015611cd257888601518255948401946001909101908401611cb3565b5085821015611cf05787850151600019600388901b60f8161c191681555b5050505050600190811b01905550565b606081526000611d14606083018789611bc1565b8560208401528281036040840152611d2d818587611bc1565b98975050505050505050565b60208082526025908201527f4552433732313a207472616e736665722066726f6d20696e636f72726563742060408201526437bbb732b960d91b606082015260800190565b60208082526032908201527f4552433732313a207472616e7366657220746f206e6f6e20455243373231526560408201527131b2b4bb32b91034b6b83632b6b2b73a32b960711b606082015260800190565b6001600160a01b0385811682528416602082015260408101839052608060608201819052600090611e03908301846115dc565b9695505050505050565b600060208284031215611e1f57600080fd5b81516115d5816115a256fea264697066735822122095e8ee9f45e08575fd953c8b68cd5b42d9a317b2fb24bbb73a8c7dd362499ada64736f6c63430008130033",
  "linkReferences": {},
  "deployedLinkReferences": {}
}