{
  "_format": "hh-sol-artifact-1",
  "contractName": "ERC7007Video",
  "sourceName": "contracts/extensions/ERC7007Video.sol",
  "abi": [
    {
      "inputs": [],
      "stateMutability": "nonpayable",
      "type": "constructor"
    },
    {
      "anonymous": false,
      "inputs": [
        {
          "indexed": true,
          "internalType": "address",
          "name": "owner",
          "type": "address"
        },
        {
          "indexed": true,
          "internalType": "address",
          "name": "approved",
          "type": "address"
        },
        {
          "indexed": true,
          "internalType": "uint256",
          "name": "tokenId",
          "type": "uint256"
        }
      ],
      "name": "Approval",
      "type": "event"
    },
    {
      "anonymous": false,
      "inputs": [
        {
          "indexed": true,
          "internalType": "address",
          "name": "owner",
          "type": "address"
        },
        {
          "indexed": true,
          "internalType": "address",
          "name": "operator",
          "type": "address"
        },
        {
          "indexed": false,
          "internalType": "bool",
          "name": "approved",
          "type": "bool"
        }
      ],
      "name": "ApprovalForAll",
      "type": "event"
    },
    {
      "anonymous": false,
      "inputs": [
        {
          "indexed": true,
          "internalType": "uint256",
          "name": "tokenId",
          "type": "uint256"
        },
        {
          "indexed": false,
          "internalType": "string",
          "name": "newTokenURI",
          "type": "string"
        }
      ],
      "name": "MetadataUpdated",
      "type": "event"
    },
    {
      "anonymous": false,
      "inputs": [
        {
          "indexed": true,
          "internalType": "address",
          "name": "previousOwner",
          "type": "address"
        },
        {
          "indexed": true,
          "internalType": "address",
          "name": "newOwner",
          "type": "address"
        }
      ],
      "name": "OwnershipTransferred",
      "type": "event"
    },
    {
      "anonymous": false,
      "inputs": [
        {
          "indexed": true,
          "internalType": "uint256",
          "name": "tokenId",
          "type": "uint256"
        },
        {
          "indexed": true,
          "internalType": "address",
          "name": "creator",
          "type": "address"
        },
        {
          "indexed": false,
          "internalType": "string",
          "name": "tokenURI",
          "type": "string"
        }
      ],
      "name": "TokenMinted",
      "type": "event"
    },
    {
      "anonymous": false,
      "inputs": [
        {
          "indexed": true,
          "internalType": "address",
          "name": "from",
          "type": "address"
        },
        {
          "indexed": true,
          "internalType": "address",
          "name": "to",
          "type": "address"
        },
        {
          "indexed": true,
          "internalType": "uint256",
          "name": "tokenId",
          "type": "uint256"
        }
      ],
      "name": "Transfer",
      "type": "event"
    },
    {
      "anonymous": false,
      "inputs": [
        {
          "indexed": true,
          "internalType": "uint256",
          "name": "tokenId",
          "type": "uint256"
        },
        {
          "indexed": false,
          "internalType": "string",
          "name": "resolution",
          "type": "string"
        },
        {
          "indexed": false,
          "internalType": "uint256",
          "name": "duration",
          "type": "uint256"
        },
        {
          "indexed": false,
          "internalType": "string",
          "name": "codec",
          "type": "string"
        },
        {
          "indexed": false,
          "internalType": "string",
          "name": "contentType",
          "type": "string"
        },
        {
          "indexed": false,
          "internalType": "bool",
          "name": "hasAudio",
          "type": "bool"
        },
        {
          "indexed": false,
          "internalType": "string",
          "name": "license",
          "type": "string"
        }
      ],
      "name": "VideoDetailsSet",
      "type": "event"
    },
    {
      "inputs": [
        {
          "internalType": "address",
          "name": "to",
          "type": "address"
        },
        {
          "internalType": "uint256",
          "name": "tokenId",
          "type": "uint256"
        }
      ],
      "name": "approve",
      "outputs": [],
      "stateMutability": "nonpayable",
      "type": "function"
    },
    {
      "inputs": [
        {
          "internalType": "address",
          "name": "owner",
          "type": "address"
        }
      ],
      "name": "balanceOf",
      "outputs": [
        {
          "internalType": "uint256",
          "name": "",
          "type": "uint256"
        }
      ],
      "stateMutability": "view",
      "type": "function"
    },
    {
      "inputs": [
        {
          "internalType": "uint256",
          "name": "tokenId",
          "type": "uint256"
        }
      ],
      "name": "creatorOf",
      "outputs": [
        {
          "internalType": "address",
          "name": "",
          "type": "address"
        }
      ],
      "stateMutability": "view",
      "type": "function"
    },
    {
      "inputs": [
        {
          "internalType": "uint256",
          "name": "tokenId",
          "type": "uint256"
        }
      ],
      "name": "getApproved",
      "outputs": [
        {
          "internalType": "address",
          "name": "",
          "type": "address"
        }
      ],
      "stateMutability": "view",
      "type": "function"
    },
    {
      "inputs": [
        {
          "internalType": "uint256",
          "name": "tokenId",
          "type": "uint256"
        }
      ],
      "name": "getVideoDetails",
      "outputs": [
        {
          "components": [
            {
              "internalType": "string",
              "name": "resolution",
              "type": "string"
            },
            {
              "internalType": "uint256",
              "name": "duration",
              "type": "uint256"
            },
            {
              "internalType": "string",
              "name": "codec",
              "type": "string"
            },
            {
              "internalType": "string",
              "name": "contentType",
              "type": "string"
            },
            {
              "internalType": "bool",
              "name": "hasAudio",
              "type": "bool"
            },
            {
              "internalType": "string",
              "name": "license",
              "type": "string"
            }
          ],
          "internalType": "struct ERC7007Video.VideoMetadata",
          "name": "",
          "type": "tuple"
        }
      ],
      "stateMutability": "view",
      "type": "function"
    },
    {
      "inputs": [
        {
          "internalType": "address",
          "name": "owner",
          "type": "address"
        },
        {
          "internalType": "address",
          "name": "operator",
          "type": "address"
        }
      ],
      "name": "isApprovedForAll",
      "outputs": [
        {
          "internalType": "bool",
          "name": "",
          "type": "bool"
        }
      ],
      "stateMutability": "view",
      "type": "function"
    },
    {
      "inputs": [
        {
          "internalType": "address",
          "name": "to",
          "type": "address"
        },
        {
          "internalType": "string",
          "name": "tokenURI_",
          "type": "string"
        }
      ],
      "name": "mint",
      "outputs": [
        {
          "internalType": "uint256",
          "name": "",
          "type": "uint256"
        }
      ],
      "stateMutability": "nonpayable",
      "type": "function"
    },
    {
      "inputs": [],
      "name": "name",
      "outputs": [
        {
          "internalType": "string",
          "name": "",
          "type": "string"
        }
      ],
      "stateMutability": "view",
      "type": "function"
    },
    {
      "inputs": [],
      "name": "owner",
      "outputs": [
        {
          "internalType": "address",
          "name": "",
          "type": "address"
        }
      ],
      "stateMutability": "view",
      "type": "function"
    },
    {
      "inputs": [
        {
          "internalType": "uint256",
          "name": "tokenId",
          "type": "uint256"
        }
      ],
      "name": "ownerOf",
      "outputs": [
        {
          "internalType": "address",
          "name": "",
          "type": "address"
        }
      ],
      "stateMutability": "view",
      "type": "function"
    },
    {
      "inputs": [],
      "name": "renounceOwnership",
      "outputs": [],
      "stateMutability": "nonpayable",
      "type": "function"
    },
    {
      "inputs": [
        {
          "internalType": "address",
          "name": "from",
          "type": "address"
        },
        {
          "internalType": "address",
          "name": "to",
          "type": "address"
        },
        {
          "internalType": "uint256",
          "name": "tokenId",
          "type": "uint256"
        }
      ],
      "name": "safeTransferFrom",
      "outputs": [],
      "stateMutability": "nonpayable",
      "type": "function"
    },
    {
      "inputs": [
        {
          "internalType": "address",
          "name": "from",
          "type": "address"
        },
        {
          "internalType": "address",
          "name": "to",
          "type": "address"
        },
        {
          "internalType": "uint256",
          "name": "tokenId",
          "type": "uint256"
        },
        {
          "internalType": "bytes",
          "name": "data",
          "type": "bytes"
        }
      ],
      "name": "safeTransferFrom",
      "outputs": [],
      "stateMutability": "nonpayable",
      "type": "function"
    },
    {
      "inputs": [
        {
          "internalType": "address",
          "name": "operator",
          "type": "address"
        },
        {
          "internalType": "bool",
          "name": "approved",
          "type": "bool"
        }
      ],
      "name": "setApprovalForAll",
      "outputs": [],
      "stateMutability": "nonpayable",
      "type": "function"
    },
    {
      "inputs": [
        {
          "internalType": "uint256",
          "name": "tokenId",
          "type": "uint256"
        },
        {
          "internalType": "string",
          "name": "resolution",
          "type": "string"
        },
        {
          "internalType": "uint256",
          "name": "duration",
          "type": "uint256"
        },
        {
          "internalType": "string",
          "name": "codec",
          "type": "string"
        },
        {
          "internalType": "string",
          "name": "contentType",
          "type": "string"
        },
        {
          "internalType": "bool",
          "name": "hasAudio",
          "type": "bool"
        },
        {
          "internalType": "string",
          "name": "license",
          "type": "string"
        }
      ],
      "name": "setVideoDetails",
      "outputs": [],
      "stateMutability": "nonpayable",
      "type": "function"
    },
    {
      "inputs": [
        {
          "internalType": "bytes4",
          "name": "interfaceId",
          "type": "bytes4"
        }
      ],
      "name": "supportsInterface",
      "outputs": [
        {
          "internalType": "bool",
          "name": "",
          "type": "bool"
        }
      ],
      "stateMutability": "view",
      "type": "function"
    },
    {
      "inputs": [],
      "name": "symbol",
      "outputs": [
        {
          "internalType": "string",
          "name": "",
          "type": "string"
        }
      ],
      "stateMutability": "view",
      "type": "function"
    },
    {
      "inputs": [
        {
          "internalType": "uint256",
          "name": "tokenId",
          "type": "uint256"
        }
      ],
      "name": "tokenURI",
      "outputs": [
        {
          "internalType": "string",
          "name": "",
          "type": "string"
        }
      ],
      "stateMutability": "view",
      "type": "function"
    },
    {
      "inputs": [
        {
          "internalType": "address",
          "name": "from",
          "type": "address"
        },
        {
          "internalType": "address",
          "name": "to",
          "type": "address"
        },
        {
          "internalType": "uint256",
          "name": "tokenId",
          "type": "uint256"
        }
      ],
      "name": "transferFrom",
      "outputs": [],
      "stateMutability": "nonpayable",
      "type": "function"
    },
    {
      "inputs": [
        {
          "internalType": "address",
          "name": "newOwner",
          "type": "address"
        }
      ],
      "name": "transferOwnership",
      "outputs": [],
      "stateMutability": "nonpayable",
      "type": "function"
    },
    {
      "inputs": [
        {
          "internalType": "uint256",
          "name": "tokenId",
          "type": "uint256"
        },
        {
          "internalType": "string",
          "name": "newTokenURI",
          "type": "string"
        }
      ],
      "name": "updateMetadata",
      "outputs": [],
      "stateMutability": "nonpayable",
      "type": "function"
    }
  ],
  "bytecode": "0x60806040523480156200001157600080fd5b506040518060400160405280600c81526020016b45524337303037566964656f60a01b81525060405180604001604052806005815260200164564944454f60d81b8152508181816000908162000068919062000197565b50600162000077828262000197565b505050620000946200008e6200009c60201b60201c565b620000a0565b505062000263565b3390565b600680546001600160a01b038381166001600160a01b0319831681179093556040519116919082907f8be0079c531659141344cd1fd0a4f28419497f9722a3daafe3b4186f6b6457e090600090a35050565b634e487b7160e01b600052604160045260246000fd5b600181811c908216806200011d57607f821691505b6020821081036200013e57634e487b7160e01b600052602260045260246000fd5b50919050565b601f8211156200019257600081815260208120601f850160051c810160208610156200016d5750805b601f850160051c820191505b818110156200018e5782815560010162000179565b5050505b505050565b81516001600160401b03811115620001b357620001b3620000f2565b620001cb81620001c4845462000108565b8462000144565b602080601f831160018114620002035760008415620001ea5750858301515b600019600386901b1c1916600185901b1785556200018e565b600085815260208120601f198616915b82811015620002345788860151825594840194600190910190840162000213565b5085821015620002535787850151600019600388901b60f8161c191681555b5050505050600190811b01905550565b61201f80620002736000396000f3fe608060405234801561001057600080fd5b50600436106101375760003560e01c8063715018a6116100b8578063ab1a5cb71161007c578063ab1a5cb714610280578063b88d4fde146102a0578063c87b56dd146102b3578063d0def521146102c6578063e985e9c5146102d9578063f2fde38b1461031557600080fd5b8063715018a6146102395780638da5cb5b146102415780638eff20d01461025257806395d89b4114610265578063a22cb4651461026d57600080fd5b806342842e0e116100ff57806342842e0e146101cc57806353c8388e146101df578063589a1743146101f25780636352211e1461020557806370a082311461021857600080fd5b806301ffc9a71461013c57806306fdde0314610164578063081812fc14610179578063095ea7b3146101a457806323b872dd146101b9575b600080fd5b61014f61014a3660046116e0565b610328565b60405190151581526020015b60405180910390f35b61016c610353565b60405161015b919061174a565b61018c61018736600461175d565b6103e5565b6040516001600160a01b03909116815260200161015b565b6101b76101b2366004611792565b61040c565b005b6101b76101c73660046117bc565b610526565b6101b76101da3660046117bc565b610557565b6101b76101ed366004611841565b610572565b61018c61020036600461175d565b61066a565b61018c61021336600461175d565b6106b3565b61022b61022636600461188d565b610713565b60405190815260200161015b565b6101b7610799565b6006546001600160a01b031661018c565b6101b76102603660046118b8565b6107ad565b61016c610a02565b6101b761027b3660046119a7565b610a11565b61029361028e36600461175d565b610a20565b60405161015b91906119da565b6101b76102ae366004611a84565b610cdf565b61016c6102c136600461175d565b610d17565b61022b6102d4366004611b60565b610dde565b61014f6102e7366004611b9a565b6001600160a01b03918216600090815260056020908152604080832093909416825291909152205460ff1690565b6101b761032336600461188d565b610edb565b60006001600160e01b031982166313f78c3160e01b148061034d575061034d82610f54565b92915050565b60606000805461036290611bc4565b80601f016020809104026020016040519081016040528092919081815260200182805461038e90611bc4565b80156103db5780601f106103b0576101008083540402835291602001916103db565b820191906000526020600020905b8154815290600101906020018083116103be57829003601f168201915b5050505050905090565b60006103f082610fa4565b506000908152600460205260409020546001600160a01b031690565b6000610417826106b3565b9050806001600160a01b0316836001600160a01b0316036104895760405162461bcd60e51b815260206004820152602160248201527f4552433732313a20617070726f76616c20746f2063757272656e74206f776e656044820152603960f91b60648201526084015b60405180910390fd5b336001600160a01b03821614806104a557506104a581336102e7565b6105175760405162461bcd60e51b815260206004820152603d60248201527f4552433732313a20617070726f76652063616c6c6572206973206e6f7420746f60448201527f6b656e206f776e6572206f7220617070726f76656420666f7220616c6c0000006064820152608401610480565b6105218383610ff4565b505050565b6105303382611062565b61054c5760405162461bcd60e51b815260040161048090611bf8565b6105218383836110e1565b61052183838360405180602001604052806000815250610cdf565b8261057c81611245565b6105985760405162461bcd60e51b815260040161048090611c45565b6000848152600860205260409020546001600160a01b031633146106105760405162461bcd60e51b815260206004820152602960248201527f455243373030373a204f6e6c792063726561746f722063616e20757064617465604482015268206d6574616461746160b81b6064820152608401610480565b6000848152600960205260409020610629838583611cca565b50837f459157ba24c7ab9878b165ef465fa6ae2ab42bcd8445f576be378768b0c47309848460405161065c929190611db4565b60405180910390a250505050565b60008161067681611245565b6106925760405162461bcd60e51b815260040161048090611c45565b6000838152600860205260409020546001600160a01b031691505b50919050565b6000818152600260205260408120546001600160a01b03168061034d5760405162461bcd60e51b8152602060048201526018602482015277115490cdcc8c4e881a5b9d985b1a59081d1bdad95b88125160421b6044820152606401610480565b60006001600160a01b03821661077d5760405162461bcd60e51b815260206004820152602960248201527f4552433732313a2061646472657373207a65726f206973206e6f7420612076616044820152683634b21037bbb732b960b91b6064820152608401610480565b506001600160a01b031660009081526003602052604090205490565b6107a1611262565b6107ab60006112bc565b565b6107b68b61066a565b6001600160a01b0316336001600160a01b0316146108295760405162461bcd60e51b815260206004820152602a60248201527f45524337303037566964656f3a204f6e6c792063726561746f722063616e207360448201526965742064657461696c7360b01b6064820152608401610480565b6040518060c001604052808b8b8080601f01602080910402602001604051908101604052809392919081815260200183838082843760009201919091525050509082525060208082018b905260408051601f8b0183900483028101830182528a8152920191908a908a9081908401838280828437600092019190915250505090825250604080516020601f89018190048102820181019092528781529181019190889088908190840183828082843760009201919091525050509082525084151560208083019190915260408051601f8601839004830281018301825285815292019190859085908190840183828082843760009201829052509390945250508d8152600a60205260409020825190915081906109469082611dc8565b5060208201516001820155604082015160028201906109659082611dc8565b506060820151600382019061097a9082611dc8565b50608082015160048201805460ff191691151591909117905560a082015160058201906109a79082611dc8565b509050508a7f5da10e186002cbef683e7a33d648ec80647d7fe993be63be7553830a386c63ba8b8b8b8b8b8b8b8b8b8b6040516109ed9a99989796959493929190611e88565b60405180910390a25050505050505050505050565b60606001805461036290611bc4565b610a1c33838361130e565b5050565b610a5b6040518060c0016040528060608152602001600081526020016060815260200160608152602001600015158152602001606081525090565b6000828152600a602052604090819020815160c08101909252805482908290610a8390611bc4565b80601f0160208091040260200160405190810160405280929190818152602001828054610aaf90611bc4565b8015610afc5780601f10610ad157610100808354040283529160200191610afc565b820191906000526020600020905b815481529060010190602001808311610adf57829003601f168201915b5050505050815260200160018201548152602001600282018054610b1f90611bc4565b80601f0160208091040260200160405190810160405280929190818152602001828054610b4b90611bc4565b8015610b985780601f10610b6d57610100808354040283529160200191610b98565b820191906000526020600020905b815481529060010190602001808311610b7b57829003601f168201915b50505050508152602001600382018054610bb190611bc4565b80601f0160208091040260200160405190810160405280929190818152602001828054610bdd90611bc4565b8015610c2a5780601f10610bff57610100808354040283529160200191610c2a565b820191906000526020600020905b815481529060010190602001808311610c0d57829003601f168201915b5050509183525050600482015460ff1615156020820152600582018054604090920191610c5690611bc4565b80601f0160208091040260200160405190810160405280929190818152602001828054610c8290611bc4565b8015610ccf5780601f10610ca457610100808354040283529160200191610ccf565b820191906000526020600020905b815481529060010190602001808311610cb257829003601f168201915b5050505050815250509050919050565b610ce93383611062565b610d055760405162461bcd60e51b815260040161048090611bf8565b610d11848484846113dc565b50505050565b606081610d2381611245565b610d3f5760405162461bcd60e51b815260040161048090611c45565b60008381526009602052604090208054610d5890611bc4565b80601f0160208091040260200160405190810160405280929190818152602001828054610d8490611bc4565b8015610dd15780601f10610da657610100808354040283529160200191610dd1565b820191906000526020600020905b815481529060010190602001808311610db457829003601f168201915b5050505050915050919050565b60006001600160a01b038416610e365760405162461bcd60e51b815260206004820152601d60248201527f455243373030373a206d696e7420746f207a65726f20616464726573730000006044820152606401610480565b610e44600780546001019055565b6000610e4f60075490565b9050610e5b858261140f565b600081815260086020908152604080832080546001600160a01b0319163317905560099091529020610e8e848683611cca565b50336001600160a01b0316817fec2cd236ed6d37bf5a71276ac93889db12834493a090efd543a3d2eca8dcdcc88686604051610ecb929190611db4565b60405180910390a3949350505050565b610ee3611262565b6001600160a01b038116610f485760405162461bcd60e51b815260206004820152602660248201527f4f776e61626c653a206e6577206f776e657220697320746865207a65726f206160448201526564647265737360d01b6064820152608401610480565b610f51816112bc565b50565b60006001600160e01b031982166380ac58cd60e01b1480610f8557506001600160e01b03198216635b5e139f60e01b145b8061034d57506301ffc9a760e01b6001600160e01b031983161461034d565b610fad81611245565b610f515760405162461bcd60e51b8152602060048201526018602482015277115490cdcc8c4e881a5b9d985b1a59081d1bdad95b88125160421b6044820152606401610480565b600081815260046020526040902080546001600160a01b0319166001600160a01b0384169081179091558190611029826106b3565b6001600160a01b03167f8c5be1e5ebec7d5bd14f71427d1e84f3dd0314c0f7b2291e5b200ac8c7c3b92560405160405180910390a45050565b60008061106e836106b3565b9050806001600160a01b0316846001600160a01b031614806110b557506001600160a01b0380821660009081526005602090815260408083209388168352929052205460ff165b806110d95750836001600160a01b03166110ce846103e5565b6001600160a01b0316145b949350505050565b826001600160a01b03166110f4826106b3565b6001600160a01b03161461111a5760405162461bcd60e51b815260040161048090611ef8565b6001600160a01b03821661117c5760405162461bcd60e51b8152602060048201526024808201527f4552433732313a207472616e7366657220746f20746865207a65726f206164646044820152637265737360e01b6064820152608401610480565b826001600160a01b031661118f826106b3565b6001600160a01b0316146111b55760405162461bcd60e51b815260040161048090611ef8565b600081815260046020908152604080832080546001600160a01b03199081169091556001600160a01b0387811680865260038552838620805460001901905590871680865283862080546001019055868652600290945282852080549092168417909155905184937fddf252ad1be2c89b69c2b068fc378daa952ba7f163c4a11628f55a4df523b3ef91a4505050565b6000908152600260205260409020546001600160a01b0316151590565b6006546001600160a01b031633146107ab5760405162461bcd60e51b815260206004820181905260248201527f4f776e61626c653a2063616c6c6572206973206e6f7420746865206f776e65726044820152606401610480565b600680546001600160a01b038381166001600160a01b0319831681179093556040519116919082907f8be0079c531659141344cd1fd0a4f28419497f9722a3daafe3b4186f6b6457e090600090a35050565b816001600160a01b0316836001600160a01b03160361136f5760405162461bcd60e51b815260206004820152601960248201527f4552433732313a20617070726f766520746f2063616c6c6572000000000000006044820152606401610480565b6001600160a01b03838116600081815260056020908152604080832094871680845294825291829020805460ff191686151590811790915591519182527f17307eab39ab6107e8899845ad3d59bd9653f200f220920489ca2b5937696c31910160405180910390a3505050565b6113e78484846110e1565b6113f384848484611429565b610d115760405162461bcd60e51b815260040161048090611f3d565b610a1c82826040518060200160405280600081525061152a565b60006001600160a01b0384163b1561151f57604051630a85bd0160e11b81526001600160a01b0385169063150b7a029061146d903390899088908890600401611f8f565b6020604051808303816000875af19250505080156114a8575060408051601f3d908101601f191682019092526114a591810190611fcc565b60015b611505573d8080156114d6576040519150601f19603f3d011682016040523d82523d6000602084013e6114db565b606091505b5080516000036114fd5760405162461bcd60e51b815260040161048090611f3d565b805181602001fd5b6001600160e01b031916630a85bd0160e11b1490506110d9565b506001949350505050565b611534838361155d565b6115416000848484611429565b6105215760405162461bcd60e51b815260040161048090611f3d565b6001600160a01b0382166115b35760405162461bcd60e51b815260206004820181905260248201527f4552433732313a206d696e7420746f20746865207a65726f20616464726573736044820152606401610480565b6115bc81611245565b156116095760405162461bcd60e51b815260206004820152601c60248201527f4552433732313a20746f6b656e20616c7265616479206d696e746564000000006044820152606401610480565b61161281611245565b1561165f5760405162461bcd60e51b815260206004820152601c60248201527f4552433732313a20746f6b656e20616c7265616479206d696e746564000000006044820152606401610480565b6001600160a01b038216600081815260036020908152604080832080546001019055848352600290915280822080546001600160a01b0319168417905551839291907fddf252ad1be2c89b69c2b068fc378daa952ba7f163c4a11628f55a4df523b3ef908290a45050565b6001600160e01b031981168114610f5157600080fd5b6000602082840312156116f257600080fd5b81356116fd816116ca565b9392505050565b6000815180845260005b8181101561172a5760208185018101518683018201520161170e565b506000602082860101526020601f19601f83011685010191505092915050565b6020815260006116fd6020830184611704565b60006020828403121561176f57600080fd5b5035919050565b80356001600160a01b038116811461178d57600080fd5b919050565b600080604083850312156117a557600080fd5b6117ae83611776565b946020939093013593505050565b6000806000606084860312156117d157600080fd5b6117da84611776565b92506117e860208501611776565b9150604084013590509250925092565b60008083601f84011261180a57600080fd5b50813567ffffffffffffffff81111561182257600080fd5b60208301915083602082850101111561183a57600080fd5b9250929050565b60008060006040848603121561185657600080fd5b83359250602084013567ffffffffffffffff81111561187457600080fd5b611880868287016117f8565b9497909650939450505050565b60006020828403121561189f57600080fd5b6116fd82611776565b8035801515811461178d57600080fd5b600080600080600080600080600080600060e08c8e0312156118d957600080fd5b8b359a5067ffffffffffffffff8060208e013511156118f757600080fd5b6119078e60208f01358f016117f8565b909b50995060408d0135985060608d013581101561192457600080fd5b6119348e60608f01358f016117f8565b909850965060808d013581101561194a57600080fd5b61195a8e60808f01358f016117f8565b909650945061196b60a08e016118a8565b93508060c08e0135111561197e57600080fd5b5061198f8d60c08e01358e016117f8565b81935080925050509295989b509295989b9093969950565b600080604083850312156119ba57600080fd5b6119c383611776565b91506119d1602084016118a8565b90509250929050565b602081526000825160c060208401526119f660e0840182611704565b9050602084015160408401526040840151601f1980858403016060860152611a1e8383611704565b92506060860151915080858403016080860152611a3b8383611704565b92506080860151151560a086015260a08601519150808584030160c086015250611a658282611704565b95945050505050565b634e487b7160e01b600052604160045260246000fd5b60008060008060808587031215611a9a57600080fd5b611aa385611776565b9350611ab160208601611776565b925060408501359150606085013567ffffffffffffffff80821115611ad557600080fd5b818701915087601f830112611ae957600080fd5b813581811115611afb57611afb611a6e565b604051601f8201601f19908116603f01168101908382118183101715611b2357611b23611a6e565b816040528281528a6020848701011115611b3c57600080fd5b82602086016020830137600060208483010152809550505050505092959194509250565b600080600060408486031215611b7557600080fd5b611b7e84611776565b9250602084013567ffffffffffffffff81111561187457600080fd5b60008060408385031215611bad57600080fd5b611bb683611776565b91506119d160208401611776565b600181811c90821680611bd857607f821691505b6020821081036106ad57634e487b7160e01b600052602260045260246000fd5b6020808252602d908201527f4552433732313a2063616c6c6572206973206e6f7420746f6b656e206f776e6560408201526c1c881bdc88185c1c1c9bdd9959609a1b606082015260800190565b6020808252601d908201527f455243373030373a20546f6b656e20646f6573206e6f74206578697374000000604082015260600190565b601f82111561052157600081815260208120601f850160051c81016020861015611ca35750805b601f850160051c820191505b81811015611cc257828155600101611caf565b505050505050565b67ffffffffffffffff831115611ce257611ce2611a6e565b611cf683611cf08354611bc4565b83611c7c565b6000601f841160018114611d2a5760008515611d125750838201355b600019600387901b1c1916600186901b178355611d84565b600083815260209020601f19861690835b82811015611d5b5786850135825560209485019460019092019101611d3b565b5086821015611d785760001960f88860031b161c19848701351681555b505060018560011b0183555b5050505050565b81835281816020850137506000828201602090810191909152601f909101601f19169091010190565b6020815260006110d9602083018486611d8b565b815167ffffffffffffffff811115611de257611de2611a6e565b611df681611df08454611bc4565b84611c7c565b602080601f831160018114611e2b5760008415611e135750858301515b600019600386901b1c1916600185901b178555611cc2565b600085815260208120601f198616915b82811015611e5a57888601518255948401946001909101908401611e3b565b5085821015611e785787850151600019600388901b60f8161c191681555b5050505050600190811b01905550565b60c081526000611e9c60c083018c8e611d8b565b8a60208401528281036040840152611eb5818a8c611d8b565b90508281036060840152611eca81888a611d8b565b9050851515608084015282810360a0840152611ee7818587611d8b565b9d9c50505050505050505050505050565b60208082526025908201527f4552433732313a207472616e736665722066726f6d20696e636f72726563742060408201526437bbb732b960d91b606082015260800190565b60208082526032908201527f4552433732313a207472616e7366657220746f206e6f6e20455243373231526560408201527131b2b4bb32b91034b6b83632b6b2b73a32b960711b606082015260800190565b6001600160a01b0385811682528416602082015260408101839052608060608201819052600090611fc290830184611704565b9695505050505050565b600060208284031215611fde57600080fd5b81516116fd816116ca56fea26469706673582212203fe5d8a26a9d7181beb54a39aaad21fb77ef6238857a8df610cbbf3309a6402d64736f6c63430008130033",
  "linkReferences": {},
  "deployedLinkReferences": {}
}