{
  "_format": "hh-sol-artifact-1",
  "contractName": "ERC7007Art",
  "sourceName": "contracts/extensions/ERC7007Art.sol",
  "abi": [
    {
      "inputs": [],
      "stateMutability": "nonpayable",
      "type": "constructor"
    },
    {
      "anonymous": false,
      "inputs": [
        {
          "indexed": true,
          "internalType": "address",
          "name": "owner",
          "type": "address"
        },
        {
          "indexed": true,
          "internalType": "address",
          "name": "approved",
          "type": "address"
        },
        {
          "indexed": true,
          "internalType": "uint256",
          "name": "tokenId",
          "type": "uint256"
        }
      ],
      "name": "Approval",
      "type": "event"
    },
    {
      "anonymous": false,
      "inputs": [
        {
          "indexed": true,
          "internalType": "address",
          "name": "owner",
          "type": "address"
        },
        {
          "indexed": true,
          "internalType": "address",
          "name": "operator",
          "type": "address"
        },
        {
          "indexed": false,
          "internalType": "bool",
          "name": "approved",
          "type": "bool"
        }
      ],
      "name": "ApprovalForAll",
      "type": "event"
    },
    {
      "anonymous": false,
      "inputs": [
        {
          "indexed": true,
          "internalType": "uint256",
          "name": "tokenId",
          "type": "uint256"
        },
        {
          "indexed": false,
          "internalType": "string",
          "name": "dimensions",
          "type": "string"
        },
        {
          "indexed": false,
          "internalType": "string",
          "name": "medium",
          "type": "string"
        }
      ],
      "name": "ArtworkDetailsSet",
      "type": "event"
    },
    {
      "anonymous": false,
      "inputs": [
        {
          "indexed": true,
          "internalType": "uint256",
          "name": "tokenId",
          "type": "uint256"
        },
        {
          "indexed": false,
          "internalType": "string",
          "name": "newTokenURI",
          "type": "string"
        }
      ],
      "name": "MetadataUpdated",
      "type": "event"
    },
    {
      "anonymous": false,
      "inputs": [
        {
          "indexed": true,
          "internalType": "address",
          "name": "previousOwner",
          "type": "address"
        },
        {
          "indexed": true,
          "internalType": "address",
          "name": "newOwner",
          "type": "address"
        }
      ],
      "name": "OwnershipTransferred",
      "type": "event"
    },
    {
      "anonymous": false,
      "inputs": [
        {
          "indexed": true,
          "internalType": "uint256",
          "name": "tokenId",
          "type": "uint256"
        },
        {
          "indexed": true,
          "internalType": "address",
          "name": "creator",
          "type": "address"
        },
        {
          "indexed": false,
          "internalType": "string",
          "name": "tokenURI",
          "type": "string"
        }
      ],
      "name": "TokenMinted",
      "type": "event"
    },
    {
      "anonymous": false,
      "inputs": [
        {
          "indexed": true,
          "internalType": "address",
          "name": "from",
          "type": "address"
        },
        {
          "indexed": true,
          "internalType": "address",
          "name": "to",
          "type": "address"
        },
        {
          "indexed": true,
          "internalType": "uint256",
          "name": "tokenId",
          "type": "uint256"
        }
      ],
      "name": "Transfer",
      "type": "event"
    },
    {
      "inputs": [
        {
          "internalType": "address",
          "name": "to",
          "type": "address"
        },
        {
          "internalType": "uint256",
          "name": "tokenId",
          "type": "uint256"
        }
      ],
      "name": "approve",
      "outputs": [],
      "stateMutability": "nonpayable",
      "type": "function"
    },
    {
      "inputs": [
        {
          "internalType": "address",
          "name": "owner",
          "type": "address"
        }
      ],
      "name": "balanceOf",
      "outputs": [
        {
          "internalType": "uint256",
          "name": "",
          "type": "uint256"
        }
      ],
      "stateMutability": "view",
      "type": "function"
    },
    {
      "inputs": [
        {
          "internalType": "uint256",
          "name": "tokenId",
          "type": "uint256"
        }
      ],
      "name": "creatorOf",
      "outputs": [
        {
          "internalType": "address",
          "name": "",
          "type": "address"
        }
      ],
      "stateMutability": "view",
      "type": "function"
    },
    {
      "inputs": [
        {
          "internalType": "uint256",
          "name": "tokenId",
          "type": "uint256"
        }
      ],
      "name": "getApproved",
      "outputs": [
        {
          "internalType": "address",
          "name": "",
          "type": "address"
        }
      ],
      "stateMutability": "view",
      "type": "function"
    },
    {
      "inputs": [
        {
          "internalType": "uint256",
          "name": "tokenId",
          "type": "uint256"
        }
      ],
      "name": "getArtworkDetails",
      "outputs": [
        {
          "internalType": "string",
          "name": "",
          "type": "string"
        },
        {
          "internalType": "string",
          "name": "",
          "type": "string"
        }
      ],
      "stateMutability": "view",
      "type": "function"
    },
    {
      "inputs": [
        {
          "internalType": "address",
          "name": "owner",
          "type": "address"
        },
        {
          "internalType": "address",
          "name": "operator",
          "type": "address"
        }
      ],
      "name": "isApprovedForAll",
      "outputs": [
        {
          "internalType": "bool",
          "name": "",
          "type": "bool"
        }
      ],
      "stateMutability": "view",
      "type": "function"
    },
    {
      "inputs": [
        {
          "internalType": "address",
          "name": "to",
          "type": "address"
        },
        {
          "internalType": "string",
          "name": "tokenURI_",
          "type": "string"
        }
      ],
      "name": "mint",
      "outputs": [
        {
          "internalType": "uint256",
          "name": "",
          "type": "uint256"
        }
      ],
      "stateMutability": "nonpayable",
      "type": "function"
    },
    {
      "inputs": [],
      "name": "name",
      "outputs": [
        {
          "internalType": "string",
          "name": "",
          "type": "string"
        }
      ],
      "stateMutability": "view",
      "type": "function"
    },
    {
      "inputs": [],
      "name": "owner",
      "outputs": [
        {
          "internalType": "address",
          "name": "",
          "type": "address"
        }
      ],
      "stateMutability": "view",
      "type": "function"
    },
    {
      "inputs": [
        {
          "internalType": "uint256",
          "name": "tokenId",
          "type": "uint256"
        }
      ],
      "name": "ownerOf",
      "outputs": [
        {
          "internalType": "address",
          "name": "",
          "type": "address"
        }
      ],
      "stateMutability": "view",
      "type": "function"
    },
    {
      "inputs": [],
      "name": "renounceOwnership",
      "outputs": [],
      "stateMutability": "nonpayable",
      "type": "function"
    },
    {
      "inputs": [
        {
          "internalType": "address",
          "name": "from",
          "type": "address"
        },
        {
          "internalType": "address",
          "name": "to",
          "type": "address"
        },
        {
          "internalType": "uint256",
          "name": "tokenId",
          "type": "uint256"
        }
      ],
      "name": "safeTransferFrom",
      "outputs": [],
      "stateMutability": "nonpayable",
      "type": "function"
    },
    {
      "inputs": [
        {
          "internalType": "address",
          "name": "from",
          "type": "address"
        },
        {
          "internalType": "address",
          "name": "to",
          "type": "address"
        },
        {
          "internalType": "uint256",
          "name": "tokenId",
          "type": "uint256"
        },
        {
          "internalType": "bytes",
          "name": "data",
          "type": "bytes"
        }
      ],
      "name": "safeTransferFrom",
      "outputs": [],
      "stateMutability": "nonpayable",
      "type": "function"
    },
    {
      "inputs": [
        {
          "internalType": "address",
          "name": "operator",
          "type": "address"
        },
        {
          "internalType": "bool",
          "name": "approved",
          "type": "bool"
        }
      ],
      "name": "setApprovalForAll",
      "outputs": [],
      "stateMutability": "nonpayable",
      "type": "function"
    },
    {
      "inputs": [
        {
          "internalType": "uint256",
          "name": "tokenId",
          "type": "uint256"
        },
        {
          "internalType": "string",
          "name": "dimensions",
          "type": "string"
        },
        {
          "internalType": "string",
          "name": "medium",
          "type": "string"
        }
      ],
      "name": "setArtworkDetails",
      "outputs": [],
      "stateMutability": "nonpayable",
      "type": "function"
    },
    {
      "inputs": [
        {
          "internalType": "bytes4",
          "name": "interfaceId",
          "type": "bytes4"
        }
      ],
      "name": "supportsInterface",
      "outputs": [
        {
          "internalType": "bool",
          "name": "",
          "type": "bool"
        }
      ],
      "stateMutability": "view",
      "type": "function"
    },
    {
      "inputs": [],
      "name": "symbol",
      "outputs": [
        {
          "internalType": "string",
          "name": "",
          "type": "string"
        }
      ],
      "stateMutability": "view",
      "type": "function"
    },
    {
      "inputs": [
        {
          "internalType": "uint256",
          "name": "tokenId",
          "type": "uint256"
        }
      ],
      "name": "tokenURI",
      "outputs": [
        {
          "internalType": "string",
          "name": "",
          "type": "string"
        }
      ],
      "stateMutability": "view",
      "type": "function"
    },
    {
      "inputs": [
        {
          "internalType": "address",
          "name": "from",
          "type": "address"
        },
        {
          "internalType": "address",
          "name": "to",
          "type": "address"
        },
        {
          "internalType": "uint256",
          "name": "tokenId",
          "type": "uint256"
        }
      ],
      "name": "transferFrom",
      "outputs": [],
      "stateMutability": "nonpayable",
      "type": "function"
    },
    {
      "inputs": [
        {
          "internalType": "address",
          "name": "newOwner",
          "type": "address"
        }
      ],
      "name": "transferOwnership",
      "outputs": [],
      "stateMutability": "nonpayable",
      "type": "function"
    },
    {
      "inputs": [
        {
          "internalType": "uint256",
          "name": "tokenId",
          "type": "uint256"
        },
        {
          "internalType": "string",
          "name": "newTokenURI",
          "type": "string"
        }
      ],
      "name": "updateMetadata",
      "outputs": [],
      "stateMutability": "nonpayable",
      "type": "function"
    }
  ],
  "bytecode": "0x60806040523480156200001157600080fd5b506040518060400160405280600a815260200169115490cdcc0c0dd05c9d60b21b8152506040518060400160405280600381526020016210549560ea1b8152508181816000908162000064919062000193565b50600162000073828262000193565b505050620000906200008a6200009860201b60201c565b6200009c565b50506200025f565b3390565b600680546001600160a01b038381166001600160a01b0319831681179093556040519116919082907f8be0079c531659141344cd1fd0a4f28419497f9722a3daafe3b4186f6b6457e090600090a35050565b634e487b7160e01b600052604160045260246000fd5b600181811c908216806200011957607f821691505b6020821081036200013a57634e487b7160e01b600052602260045260246000fd5b50919050565b601f8211156200018e57600081815260208120601f850160051c81016020861015620001695750805b601f850160051c820191505b818110156200018a5782815560010162000175565b5050505b505050565b81516001600160401b03811115620001af57620001af620000ee565b620001c781620001c0845462000104565b8462000140565b602080601f831160018114620001ff5760008415620001e65750858301515b600019600386901b1c1916600185901b1785556200018a565b600085815260208120601f198616915b8281101562000230578886015182559484019460019091019084016200020f565b50858210156200024f5787850151600019600388901b60f8161c191681555b5050505050600190811b01905550565b611d72806200026f6000396000f3fe608060405234801561001057600080fd5b50600436106101375760003560e01c806370a08231116100b8578063b88d4fde1161007c578063b88d4fde14610280578063c87b56dd14610293578063cb80e5a3146102a6578063d0def521146102c7578063e985e9c5146102da578063f2fde38b1461031657600080fd5b806370a082311461022b578063715018a61461024c5780638da5cb5b1461025457806395d89b4114610265578063a22cb4651461026d57600080fd5b806342842e0e116100ff57806342842e0e146101cc578063466572c7146101df57806353c8388e146101f2578063589a1743146102055780636352211e1461021857600080fd5b806301ffc9a71461013c57806306fdde0314610164578063081812fc14610179578063095ea7b3146101a457806323b872dd146101b9575b600080fd5b61014f61014a36600461156a565b610329565b60405190151581526020015b60405180910390f35b61016c610354565b60405161015b91906115d4565b61018c6101873660046115e7565b6103e6565b6040516001600160a01b03909116815260200161015b565b6101b76101b236600461161c565b61040d565b005b6101b76101c7366004611646565b610527565b6101b76101da366004611646565b610558565b6101b76101ed36600461172e565b610573565b6101b76102003660046117e4565b6106e9565b61018c6102133660046115e7565b6107e1565b61018c6102263660046115e7565b61082a565b61023e610239366004611830565b61088a565b60405190815260200161015b565b6101b7610910565b6006546001600160a01b031661018c565b61016c610924565b6101b761027b36600461184b565b610933565b6101b761028e366004611887565b610942565b61016c6102a13660046115e7565b61097a565b6102b96102b43660046115e7565b610a41565b60405161015b929190611903565b61023e6102d5366004611928565b610c56565b61014f6102e8366004611962565b6001600160a01b03918216600090815260056020908152604080832093909416825291909152205460ff1690565b6101b7610324366004611830565b610c6d565b60006001600160e01b031982166313f78c3160e01b148061034e575061034e82610ce6565b92915050565b60606000805461036390611995565b80601f016020809104026020016040519081016040528092919081815260200182805461038f90611995565b80156103dc5780601f106103b1576101008083540402835291602001916103dc565b820191906000526020600020905b8154815290600101906020018083116103bf57829003601f168201915b5050505050905090565b60006103f182610d36565b506000908152600460205260409020546001600160a01b031690565b60006104188261082a565b9050806001600160a01b0316836001600160a01b03160361048a5760405162461bcd60e51b815260206004820152602160248201527f4552433732313a20617070726f76616c20746f2063757272656e74206f776e656044820152603960f91b60648201526084015b60405180910390fd5b336001600160a01b03821614806104a657506104a681336102e8565b6105185760405162461bcd60e51b815260206004820152603d60248201527f4552433732313a20617070726f76652063616c6c6572206973206e6f7420746f60448201527f6b656e206f776e6572206f7220617070726f76656420666f7220616c6c0000006064820152608401610481565b6105228383610d86565b505050565b6105313382610df4565b61054d5760405162461bcd60e51b8152600401610481906119c9565b610522838383610e73565b61052283838360405180602001604052806000815250610942565b61057c83610fd7565b6105c85760405162461bcd60e51b815260206004820181905260248201527f455243373030374172743a20546f6b656e20646f6573206e6f742065786973746044820152606401610481565b6105d1836107e1565b6001600160a01b0316336001600160a01b0316146106425760405162461bcd60e51b815260206004820152602860248201527f455243373030374172743a204f6e6c792063726561746f722063616e207365746044820152672064657461696c7360c01b6064820152608401610481565b6040805160608101825283815260208082018490526001828401526000868152600a90915291909120815181906106799082611a64565b506020820151600182019061068e9082611a64565b50604091820151600291909101805460ff19169115159190911790555183907f99ba70547d2d8d69965e807673278731f84c8eea90a9b8b4be51affcd2f96356906106dc9085908590611903565b60405180910390a2505050565b826106f381610fd7565b61070f5760405162461bcd60e51b815260040161048190611b24565b6000848152600860205260409020546001600160a01b031633146107875760405162461bcd60e51b815260206004820152602960248201527f455243373030373a204f6e6c792063726561746f722063616e20757064617465604482015268206d6574616461746160b81b6064820152608401610481565b60008481526009602052604090206107a0838583611b5b565b50837f459157ba24c7ab9878b165ef465fa6ae2ab42bcd8445f576be378768b0c4730984846040516107d3929190611c1c565b60405180910390a250505050565b6000816107ed81610fd7565b6108095760405162461bcd60e51b815260040161048190611b24565b6000838152600860205260409020546001600160a01b031691505b50919050565b6000818152600260205260408120546001600160a01b03168061034e5760405162461bcd60e51b8152602060048201526018602482015277115490cdcc8c4e881a5b9d985b1a59081d1bdad95b88125160421b6044820152606401610481565b60006001600160a01b0382166108f45760405162461bcd60e51b815260206004820152602960248201527f4552433732313a2061646472657373207a65726f206973206e6f7420612076616044820152683634b21037bbb732b960b91b6064820152608401610481565b506001600160a01b031660009081526003602052604090205490565b610918610ff4565b610922600061104e565b565b60606001805461036390611995565b61093e3383836110a0565b5050565b61094c3383610df4565b6109685760405162461bcd60e51b8152600401610481906119c9565b6109748484848461116e565b50505050565b60608161098681610fd7565b6109a25760405162461bcd60e51b815260040161048190611b24565b600083815260096020526040902080546109bb90611995565b80601f01602080910402602001604051908101604052809291908181526020018280546109e790611995565b8015610a345780601f10610a0957610100808354040283529160200191610a34565b820191906000526020600020905b815481529060010190602001808311610a1757829003601f168201915b5050505050915050919050565b606080610a4d83610fd7565b610a995760405162461bcd60e51b815260206004820181905260248201527f455243373030374172743a20546f6b656e20646f6573206e6f742065786973746044820152606401610481565b6000838152600a602052604090206002015460ff16610afa5760405162461bcd60e51b815260206004820152601b60248201527f455243373030374172743a2044657461696c73206e6f742073657400000000006044820152606401610481565b6000838152600a6020526040808220815160608101909252805482908290610b2190611995565b80601f0160208091040260200160405190810160405280929190818152602001828054610b4d90611995565b8015610b9a5780601f10610b6f57610100808354040283529160200191610b9a565b820191906000526020600020905b815481529060010190602001808311610b7d57829003601f168201915b50505050508152602001600182018054610bb390611995565b80601f0160208091040260200160405190810160405280929190818152602001828054610bdf90611995565b8015610c2c5780601f10610c0157610100808354040283529160200191610c2c565b820191906000526020600020905b815481529060010190602001808311610c0f57829003601f168201915b50505091835250506002919091015460ff1615156020918201528151910151909590945092505050565b600080610c648585856111a1565b95945050505050565b610c75610ff4565b6001600160a01b038116610cda5760405162461bcd60e51b815260206004820152602660248201527f4f776e61626c653a206e6577206f776e657220697320746865207a65726f206160448201526564647265737360d01b6064820152608401610481565b610ce38161104e565b50565b60006001600160e01b031982166380ac58cd60e01b1480610d1757506001600160e01b03198216635b5e139f60e01b145b8061034e57506301ffc9a760e01b6001600160e01b031983161461034e565b610d3f81610fd7565b610ce35760405162461bcd60e51b8152602060048201526018602482015277115490cdcc8c4e881a5b9d985b1a59081d1bdad95b88125160421b6044820152606401610481565b600081815260046020526040902080546001600160a01b0319166001600160a01b0384169081179091558190610dbb8261082a565b6001600160a01b03167f8c5be1e5ebec7d5bd14f71427d1e84f3dd0314c0f7b2291e5b200ac8c7c3b92560405160405180910390a45050565b600080610e008361082a565b9050806001600160a01b0316846001600160a01b03161480610e4757506001600160a01b0380821660009081526005602090815260408083209388168352929052205460ff165b80610e6b5750836001600160a01b0316610e60846103e6565b6001600160a01b0316145b949350505050565b826001600160a01b0316610e868261082a565b6001600160a01b031614610eac5760405162461bcd60e51b815260040161048190611c4b565b6001600160a01b038216610f0e5760405162461bcd60e51b8152602060048201526024808201527f4552433732313a207472616e7366657220746f20746865207a65726f206164646044820152637265737360e01b6064820152608401610481565b826001600160a01b0316610f218261082a565b6001600160a01b031614610f475760405162461bcd60e51b815260040161048190611c4b565b600081815260046020908152604080832080546001600160a01b03199081169091556001600160a01b0387811680865260038552838620805460001901905590871680865283862080546001019055868652600290945282852080549092168417909155905184937fddf252ad1be2c89b69c2b068fc378daa952ba7f163c4a11628f55a4df523b3ef91a4505050565b6000908152600260205260409020546001600160a01b0316151590565b6006546001600160a01b031633146109225760405162461bcd60e51b815260206004820181905260248201527f4f776e61626c653a2063616c6c6572206973206e6f7420746865206f776e65726044820152606401610481565b600680546001600160a01b038381166001600160a01b0319831681179093556040519116919082907f8be0079c531659141344cd1fd0a4f28419497f9722a3daafe3b4186f6b6457e090600090a35050565b816001600160a01b0316836001600160a01b0316036111015760405162461bcd60e51b815260206004820152601960248201527f4552433732313a20617070726f766520746f2063616c6c6572000000000000006044820152606401610481565b6001600160a01b03838116600081815260056020908152604080832094871680845294825291829020805460ff191686151590811790915591519182527f17307eab39ab6107e8899845ad3d59bd9653f200f220920489ca2b5937696c31910160405180910390a3505050565b611179848484610e73565b6111858484848461129e565b6109745760405162461bcd60e51b815260040161048190611c90565b60006001600160a01b0384166111f95760405162461bcd60e51b815260206004820152601d60248201527f455243373030373a206d696e7420746f207a65726f20616464726573730000006044820152606401610481565b611207600780546001019055565b600061121260075490565b905061121e858261139f565b600081815260086020908152604080832080546001600160a01b0319163317905560099091529020611251848683611b5b565b50336001600160a01b0316817fec2cd236ed6d37bf5a71276ac93889db12834493a090efd543a3d2eca8dcdcc8868660405161128e929190611c1c565b60405180910390a3949350505050565b60006001600160a01b0384163b1561139457604051630a85bd0160e11b81526001600160a01b0385169063150b7a02906112e2903390899088908890600401611ce2565b6020604051808303816000875af192505050801561131d575060408051601f3d908101601f1916820190925261131a91810190611d1f565b60015b61137a573d80801561134b576040519150601f19603f3d011682016040523d82523d6000602084013e611350565b606091505b5080516000036113725760405162461bcd60e51b815260040161048190611c90565b805181602001fd5b6001600160e01b031916630a85bd0160e11b149050610e6b565b506001949350505050565b61093e8282604051806020016040528060008152506113be83836113e7565b6113cb600084848461129e565b6105225760405162461bcd60e51b815260040161048190611c90565b6001600160a01b03821661143d5760405162461bcd60e51b815260206004820181905260248201527f4552433732313a206d696e7420746f20746865207a65726f20616464726573736044820152606401610481565b61144681610fd7565b156114935760405162461bcd60e51b815260206004820152601c60248201527f4552433732313a20746f6b656e20616c7265616479206d696e746564000000006044820152606401610481565b61149c81610fd7565b156114e95760405162461bcd60e51b815260206004820152601c60248201527f4552433732313a20746f6b656e20616c7265616479206d696e746564000000006044820152606401610481565b6001600160a01b038216600081815260036020908152604080832080546001019055848352600290915280822080546001600160a01b0319168417905551839291907fddf252ad1be2c89b69c2b068fc378daa952ba7f163c4a11628f55a4df523b3ef908290a45050565b6001600160e01b031981168114610ce357600080fd5b60006020828403121561157c57600080fd5b813561158781611554565b9392505050565b6000815180845260005b818110156115b457602081850181015186830182015201611598565b506000602082860101526020601f19601f83011685010191505092915050565b602081526000611587602083018461158e565b6000602082840312156115f957600080fd5b5035919050565b80356001600160a01b038116811461161757600080fd5b919050565b6000806040838503121561162f57600080fd5b61163883611600565b946020939093013593505050565b60008060006060848603121561165b57600080fd5b61166484611600565b925061167260208501611600565b9150604084013590509250925092565b634e487b7160e01b600052604160045260246000fd5b600067ffffffffffffffff808411156116b3576116b3611682565b604051601f8501601f19908116603f011681019082821181831017156116db576116db611682565b816040528093508581528686860111156116f457600080fd5b858560208301376000602087830101525050509392505050565b600082601f83011261171f57600080fd5b61158783833560208501611698565b60008060006060848603121561174357600080fd5b83359250602084013567ffffffffffffffff8082111561176257600080fd5b61176e8783880161170e565b9350604086013591508082111561178457600080fd5b506117918682870161170e565b9150509250925092565b60008083601f8401126117ad57600080fd5b50813567ffffffffffffffff8111156117c557600080fd5b6020830191508360208285010111156117dd57600080fd5b9250929050565b6000806000604084860312156117f957600080fd5b83359250602084013567ffffffffffffffff81111561181757600080fd5b6118238682870161179b565b9497909650939450505050565b60006020828403121561184257600080fd5b61158782611600565b6000806040838503121561185e57600080fd5b61186783611600565b91506020830135801515811461187c57600080fd5b809150509250929050565b6000806000806080858703121561189d57600080fd5b6118a685611600565b93506118b460208601611600565b925060408501359150606085013567ffffffffffffffff8111156118d757600080fd5b8501601f810187136118e857600080fd5b6118f787823560208401611698565b91505092959194509250565b604081526000611916604083018561158e565b8281036020840152610c64818561158e565b60008060006040848603121561193d57600080fd5b61194684611600565b9250602084013567ffffffffffffffff81111561181757600080fd5b6000806040838503121561197557600080fd5b61197e83611600565b915061198c60208401611600565b90509250929050565b600181811c908216806119a957607f821691505b60208210810361082457634e487b7160e01b600052602260045260246000fd5b6020808252602d908201527f4552433732313a2063616c6c6572206973206e6f7420746f6b656e206f776e6560408201526c1c881bdc88185c1c1c9bdd9959609a1b606082015260800190565b601f82111561052257600081815260208120601f850160051c81016020861015611a3d5750805b601f850160051c820191505b81811015611a5c57828155600101611a49565b505050505050565b815167ffffffffffffffff811115611a7e57611a7e611682565b611a9281611a8c8454611995565b84611a16565b602080601f831160018114611ac75760008415611aaf5750858301515b600019600386901b1c1916600185901b178555611a5c565b600085815260208120601f198616915b82811015611af657888601518255948401946001909101908401611ad7565b5085821015611b145787850151600019600388901b60f8161c191681555b5050505050600190811b01905550565b6020808252601d908201527f455243373030373a20546f6b656e20646f6573206e6f74206578697374000000604082015260600190565b67ffffffffffffffff831115611b7357611b73611682565b611b8783611b818354611995565b83611a16565b6000601f841160018114611bbb5760008515611ba35750838201355b600019600387901b1c1916600186901b178355611c15565b600083815260209020601f19861690835b82811015611bec5786850135825560209485019460019092019101611bcc565b5086821015611c095760001960f88860031b161c19848701351681555b505060018560011b0183555b5050505050565b60208152816020820152818360408301376000818301604090810191909152601f909201601f19160101919050565b60208082526025908201527f4552433732313a207472616e736665722066726f6d20696e636f72726563742060408201526437bbb732b960d91b606082015260800190565b60208082526032908201527f4552433732313a207472616e7366657220746f206e6f6e20455243373231526560408201527131b2b4bb32b91034b6b83632b6b2b73a32b960711b606082015260800190565b6001600160a01b0385811682528416602082015260408101839052608060608201819052600090611d159083018461158e565b9695505050505050565b600060208284031215611d3157600080fd5b81516115878161155456fea26469706673582212209a3ea0eb415777eceec927a053387589ba39a9e43c26de66658e315c2175380564736f6c63430008130033",
  "linkReferences": {},
  "deployedLinkReferences": {}
}